:100000000C9462000C948A000C948A000C948A0070
:100010000C948A000C948A000C948A000C948A0038
:100020000C948A000C948A000C948A000C948A0028
:100030000C948A000C948A000C948A000C948A0018
:100040000C94A0010C948A000C9418030C946A037D
:100050000C948A000C948A000C948A000C948A00F8
:100060000C948A000C948A000000000024002700F1
:100070002A0000000000250028002B0000000000DE
:1000800023002600290004040404040404040202DA
:100090000202020203030303030301020408102007
:1000A0004080010204081020010204081020000012
:1000B0000007000201000003040600000000000029
:1000C0000000D90411241FBECFEFD8E0DEBFCDBFA2
:1000D00011E0A0E0B1E0E6E1FCE002C005900D9285
:1000E000A034B107D9F712E0A0E4B1E001C01D923D
:1000F000A330B107E1F710E0C4ECD0E004C02297D0
:10010000FE010E940506C23CD107C9F70E943005D6
:100110000C9409060C9400000E94E801209145010E
:10012000309146014091470150914801621B730B89
:10013000840B950B695E73408040904010F480E022
:1001400008950E94E80160934501709346018093F1
:1001500047019093480181E00895682F83E00E9451
:1001600070020895EF92FF920F931F937B018C0111
:100170000E94E801209141013091420140914301E8
:1001800050914401621B730B840B950BE616F70626
:1001900008071907A8F490E080914001882309F42A
:1001A00091E090934001892F0E94AD000E94E801E8
:1001B0006093410170934201809343019093440105
:1001C0001F910F91FF90EF90089583E060E00E94EF
:1001D000700208950097C9F08130910529F468EE06
:1001E00073E080E090E00EC08230910529F464EF66
:1001F00071E080E090E006C0039739F464E670E0B7
:1002000080E090E00E94B20008950E94E500089509
:10021000CF93DF9384E00E94C402EC0180912F0110
:1002200090E0C817D90751F00E94E8016093490196
:1002300070934A0180934B0190934C010E94E80116
:100240002091490130914A0140914B0150914C015C
:10025000621B730B840B950B63337105810591054C
:1002600090F080912E0190E0C817D90761F0C093FB
:100270002E01C13041F481EE91E060E071E00E9416
:10028000A70581E003C0C0932F0180E0DF91CF91EB
:1002900008950E940801882391F081EE91E065E1C4
:1002A00071E00E94A70590E080914D01882309F438
:1002B00091E090934D0110924F0110924E01809168
:1002C0004D01882369F00E948C00882349F08091B9
:1002D0004E0190914F01019690934F0180934E01F2
:1002E00020914E0130914F01C9010197039718F4F5
:1002F00081E090E011C0C9010497039718F482E0EF
:1003000090E00AC0275030402430310518F080E0DA
:1003100090E002C083E090E00E94EA00089584E04B
:1003200062E00E94310283E061E00E94310281EECE
:1003300091E040E855E260E070E00E94A503089576
:100340001F920F920FB60F9211242F933F938F930A
:100350009F93AF93BF938091540190915501A091C9
:100360005601B0915701309158010196A11DB11D60
:10037000232F2D5F2D3720F02D570196A11DB11D84
:10038000209358018093540190935501A0935601F6
:10039000B09357018091500190915101A091520169
:1003A000B09153010196A11DB11D8093500190930E
:1003B0005101A0935201B0935301BF91AF919F910E
:1003C0008F913F912F910F900FBE0F901F90189516
:1003D0008FB7F89420915401309155014091560106
:1003E000509157018FBFB901CA010895789484B51F
:1003F000826084BD84B5816084BD85B5826085BD21
:1004000085B5816085BDEEE6F0E080818160808306
:10041000E1E8F0E0108280818260808380818160E9
:100420008083E0E8F0E0808181608083E1EBF0E0B0
:10043000808184608083E0EBF0E080818160808354
:10044000EAE7F0E08081846080838081826080833D
:100450008081816080838081806880831092C10068
:100460000895CF93DF93482F50E0CA0186569F4FDF
:10047000FC0134914A575F4FFA018491882369F156
:1004800090E0880F991FFC01E859FF4FA591B491A6
:10049000FC01EE58FF4FC591D491662351F42FB75C
:1004A000F8948C91932F909589238C93888189233C
:1004B0000BC0623061F42FB7F8948C91932F909514
:1004C00089238C938881832B88832FBF06C09FB795
:1004D000F8948C91832B8C939FBFDF91CF910895DB
:1004E000482F50E0CA0182559F4FFC012491CA0158
:1004F00086569F4FFC0194914A575F4FFA01349101
:10050000332309F440C0222351F1233071F0243009
:1005100028F42130A1F0223011F514C02630B1F0BA
:100520002730C1F02430D9F404C0809180008F7747
:1005300003C0809180008F7D8093800010C084B5BF
:100540008F7702C084B58F7D84BD09C08091B000D3
:100550008F7703C08091B0008F7D8093B000E32F30
:10056000F0E0EE0FFF1FEE58FF4FA591B4912FB7AB
:10057000F894662321F48C919095892302C08C9184
:10058000892B8C932FBF0895682F70E0CB01825583
:100590009F4FFC012491CB0186569F4FFC01449153
:1005A0006A577F4FFB019491992319F420E030E0C2
:1005B0003CC0222351F1233071F0243028F4213043
:1005C000A1F0223011F514C02630B1F02730C1F06F
:1005D0002430D9F404C0809180008F7703C08091CB
:1005E00080008F7D8093800010C084B58F7702C01B
:1005F00084B58F7D84BD09C08091B0008F7703C022
:100600008091B0008F7D8093B000892F90E0880F9B
:10061000991F84589F4FFC01A591B4918C9120E0C3
:1006200030E0842311F021E030E0C90108950895FD
:100630001F920F920FB60F9211242F933F934F9357
:100640008F939F93EF93FF938091C00082FD1DC015
:100650004091C6002091990130919A012F5F3F4F40
:100660002F73307080919B0190919C01281739075E
:1006700071F0E0919901F0919A01E75AFE4F4083A1
:1006800030939A012093990102C08091C600FF9196
:10069000EF919F918F914F913F912F910F900FBEAE
:1006A0000F901F901895E091ED01F091EE01E05C44
:1006B000FF4F8191919120813181805C9F4F821BFE
:1006C000930B60E470E00E94BA05892B11F00E9440
:1006D000170308951F920F920FB60F9211242F93B4
:1006E0003F938F939F93EF93FF932091DD01309180
:1006F000DE018091DF019091E0012817390731F484
:100700008091C1008F7D8093C10014C0E091DF0112
:10071000F091E001E356FE4F20818091DF0190913E
:10072000E00101968F7390709093E0018093DF0158
:100730002093C600FF91EF919F918F913F912F9150
:100740000F900FBE0F901F901895AF92BF92DF923F
:10075000EF92FF920F931F93CF93DF93EC017A01F7
:100760008B01DD24403081EE580780E0680780E08F
:10077000780711F0DD24D39491E0A92EB12CEC89F7
:10078000FD89DD2069F0C50108A002C0880F991F0E
:100790000A94E2F7808360E079E08DE390E005C0A1
:1007A000108260E874E88EE190E0A80197010E9451
:1007B000CD052150304040405040569547953795E3
:1007C000279580E12030380720F0DD2011F0DD246E
:1007D000D6CFE889F9893083EA89FB89208319A279
:1007E000EE89FF89408121E030E0C9010C8C02C014
:1007F000880F991F0A94E2F7482B4083EE89FF89FE
:100800004081C9010D8C02C0880F991F0A94E2F73C
:10081000482B4083EE89FF894081C9010E8C02C0BC
:10082000880F991F0A94E2F7482B4083EE89FF89CD
:1008300080810F8C02C0220F331F0A94E2F72095AB
:1008400028232083DF91CF911F910F91FF90EF908C
:10085000DF90BF90AF900895DC011C96ED91FC9164
:100860001D97E05CFF4F8191919120813181805CE7
:100870009F4F821B930B60E470E00E94BA050895BD
:10088000DC011C96ED91FC911D97E05CFF4F2081EF
:100890003181E054F040DF01AE5BBF4F8D919C9100
:1008A00011972817390719F42FEF3FEF07C08D91E3
:1008B0009C91E80FF91F8081282F30E0C90108952D
:1008C000DC011C96ED91FC911D97E05CFF4F2081AF
:1008D0003181E054F040DF01AE5BBF4F8D919C91C0
:1008E00011972817390719F42FEF3FEF10C08D919A
:1008F0009C911197E80FF91F20818D919C91119780
:1009000001968F73907011969C938E9330E0C9017D
:100910000895DC0191968C919197882339F0549633
:10092000ED91FC915597808186FFF9CF91961C92AD
:100930000895CF93DF93EC01EE85FF85E05CFF4FD8
:1009400020813181E054F0402F5F3F4F2F73307092
:10095000DF01AE5BBF4F8D919C911197281739072E
:10096000D1F3E05CFF4F80819181E054F040E80FCB
:10097000F91F6083EE85FF85E05CFF4F31832083A4
:10098000EE89FF89208181E090E00F8C02C0880F02
:10099000991F0A94E2F7282B208381E089A3EC8930
:1009A000FD8980818064808381E090E0DF91CF9138
:1009B00008951092E4011092E30188EE93E0A0E024
:1009C000B0E08093E5019093E601A093E701B09336
:1009D000E80184E391E09093E2018093E10189E5ED
:1009E00091E09093EE018093ED018DE991E0909379
:1009F000F0018093EF0185EC90E09093F2018093F9
:100A0000F10184EC90E09093F4018093F30180EC89
:100A100090E09093F6018093F50181EC90E0909343
:100A2000F8018093F70182EC90E09093FA018093B3
:100A3000F90186EC90E09093FC018093FB0184E047
:100A40008093FD0183E08093FE0187E08093FF01A6
:100A500085E08093000281E080930102089508956B
:100A6000CF93DF930E94F6010E942F050E948F0111
:100A7000C3E5D3E00E9449012097E1F30E945303AC
:100A8000F9CFCF92DF92EF92FF920F931F93CF9304
:100A9000DF937C016B018A01C0E0D0E00FC0D6017A
:100AA0006D916D01D701ED91FC910190F081E02DE8
:100AB000C7010995C80FD91F015010400115110534
:100AC00071F7CE01DF91CF911F910F91FF90EF90C1
:100AD000DF90CF900895EF92FF920F931F938C01B8
:100AE000DC01ED91FC910190F081E02D6DE0099524
:100AF0007C01D801ED91FC910190F081E02DC801BD
:100B00006AE009959C012E0D3F1DC9011F910F91AF
:100B1000FF90EF900895CF93DF93EC01611571057D
:100B200019F420E030E00FC0DB010D900020E9F760
:100B30001197A61BB70BE881F9810280F381E02DA4
:100B4000AD0109959C01C901DF91CF910895EF9204
:100B5000FF920F931F937C010E948B058C01C701AC
:100B60000E946B05080F191FC8011F910F91FF907C
:100B7000EF90089597FB092E07260AD077FD04D041
:100B80002ED006D000201AF4709561957F4F0895FD
:100B9000F6F7909581959F4F0895A1E21A2EAA1B12
:100BA000BB1BFD010DC0AA1FBB1FEE1FFF1FA2171D
:100BB000B307E407F50720F0A21BB30BE40BF50B1A
:100BC000661F771F881F991F1A9469F760957095A3
:100BD000809590959B01AC01BD01CF010895AA1BA2
:100BE000BB1B51E107C0AA1FBB1FA617B70710F018
:100BF000A61BB70B881F991F5A95A9F7809590954A
:100C0000BC01CD010895EE0FFF1F0590F491E02D7A
:060C10000994F894FFCFE7
:100C1600627574746F6E20737461746520697320D5
:100C2600484947480077617320636865636B65646C
:100C360020627574746F6E207374617465000101AF
:100C460000000000990441052C0460044004890456
:00000001FF
