:100000000C9462000C948A000C948A000C948A0070
:100010000C948A000C948A000C948A000C948A0038
:100020000C948A000C948A000C948A000C948A0028
:100030000C948A000C948A000C948A000C948A0018
:100040000C94A1010C948A000C9419030C946B037A
:100050000C948A000C948A000C948A000C948A00F8
:100060000C948A000C948A000000000024002700F1
:100070002A0000000000250028002B0000000000DE
:1000800023002600290004040404040404040202DA
:100090000202020203030303030301020408102007
:1000A0004080010204081020010204081020000012
:1000B0000007000201000003040600000000000029
:1000C0000000DA0411241FBECFEFD8E0DEBFCDBFA1
:1000D00011E0A0E0B1E0ECEDFDE002C005900D9272
:1000E000A032B107D9F711E0A0E2B1E001C01D9242
:1000F000A33EB107E1F710E0C4ECD0E004C02297C2
:10010000FE010E94E806C23CD107C9F70E943105F2
:100110000C94EC060C9400000E94E901209125014A
:10012000309126014091270150912801621B730BE9
:10013000840B950B695E73408040904010F480E022
:1001400008950E94E9016093250170932601809330
:1001500027019093280181E00895682F83E00E9491
:1001600071020895EF92FF920F931F937B018C0110
:100170000E94E90120912101309122014091230147
:1001800050912401621B730B840B950BE616F70646
:1001900008071907A8F490E080912001882309F44A
:1001A00091E090932001892F0E94AD000E94E90107
:1001B0006093210170932201809323019093240185
:1001C0001F910F91FF90EF90089583E060E00E94EF
:1001D000710208950097C9F08130910529F468EE05
:1001E00073E080E090E00EC08230910529F464EF66
:1001F00071E080E090E006C0039739F464E670E0B7
:1002000080E090E00E94B20008950E94E500089509
:10021000CF93DF9384E00E94C502EC0180910E0130
:1002200090E0C817D90751F00E94E90160932901B5
:1002300070932A0180932B0190932C010E94E90175
:100240002091290130912A0140912B0150912C01DC
:10025000621B730B840B950B63337105810591054C
:1002600090F080910D0190E0C817D90761F0C0931C
:100270000D01C13041F481EC91E060E071E00E9439
:100280006B0681E003C0C0930E0180E0DF91CF9147
:1002900008950E940801882361F090E080912D016B
:1002A000882309F491E090932D0110922F01109270
:1002B0002E0180912D018823A1F00E948C008823BB
:1002C00081F060912E0170912F016F5F7F4F7093CD
:1002D0002F0160932E0181EC91E04AE050E00E94F2
:1002E0004C0620912E0130912F01C90101970397EF
:1002F00018F481E090E011C0C9010497039718F445
:1003000082E090E00AC0275030402430310518F0D8
:1003100080E090E002C083E090E00E94EA0008954F
:1003200084E062E00E94320283E061E00E943202D7
:1003300081EC91E040E855E260E070E00E94A603A5
:1003400008951F920F920FB60F9211242F933F938F
:100350008F939F93AF93BF93809134019091350118
:10036000A0913601B0913701309138010196A11D5D
:10037000B11D232F2D5F2D3720F02D570196A11D84
:10038000B11D209338018093340190933501A093DF
:100390003601B09337018091300190913101A091E5
:1003A0003201B09133010196A11DB11D809330013E
:1003B00090933101A0933201B0933301BF91AF917B
:1003C0009F918F913F912F910F900FBE0F901F9093
:1003D00018958FB7F89420913401309135014091F0
:1003E0003601509137018FBFB901CA010895789441
:1003F00084B5826084BD84B5816084BD85B582602A
:1004000085BD85B5816085BDEEE6F0E080818160C7
:100410008083E1E8F0E010828081826080838081C7
:1004200081608083E0E8F0E0808181608083E1EB9F
:10043000F0E0808184608083E0EBF0E08081816087
:100440008083EAE7F0E0808184608083808182603D
:100450008083808181608083808180688083109226
:10046000C1000895CF93DF93482F50E0CA0186560C
:100470009F4FFC0134914A575F4FFA0184918823C2
:1004800069F190E0880F991FFC01E859FF4FA59191
:10049000B491FC01EE58FF4FC591D491662351F4FD
:1004A0002FB7F8948C91932F909589238C93888102
:1004B00089230BC0623061F42FB7F8948C91932F8D
:1004C000909589238C938881832B88832FBF06C0C6
:1004D0009FB7F8948C91832B8C939FBFDF91CF9122
:1004E0000895482F50E0CA0182559F4FFC01249186
:1004F000CA0186569F4FFC0194914A575F4FFA01FB
:100500003491332309F440C0222351F1233071F098
:10051000243028F42130A1F0223011F514C0263007
:10052000B1F02730C1F02430D9F404C080918000AC
:100530008F7703C0809180008F7D8093800010C0F2
:1005400084B58F7702C084B58F7D84BD09C080914A
:10055000B0008F7703C08091B0008F7D8093B00092
:10056000E32FF0E0EE0FFF1FEE58FF4FA591B4917F
:100570002FB7F894662321F48C919095892302C0BB
:100580008C91892B8C932FBF0895682F70E0CB013D
:1005900082559F4FFC012491CB0186569F4FFC0151
:1005A00044916A577F4FFB019491992319F420E0FD
:1005B00030E03CC0222351F1233071F0243028F484
:1005C0002130A1F0223011F514C02630B1F02730CF
:1005D000C1F02430D9F404C0809180008F7703C02B
:1005E000809180008F7D8093800010C084B58F77CC
:1005F00002C084B58F7D84BD09C08091B0008F7723
:1006000003C08091B0008F7D8093B000892F90E06F
:10061000880F991F84589F4FFC01A591B4918C912C
:1006200020E030E0842311F021E030E0C90108959A
:1006300008951F920F920FB60F9211242F933F939C
:100640004F938F939F93EF93FF938091C00082FD10
:100650001DC04091C6002091790130917A012F5F31
:100660003F4F2F73307080917B0190917C01281750
:10067000390771F0E0917901F0917A01E75CFE4F62
:10068000408330937A012093790102C08091C600A3
:10069000FF91EF919F918F914F913F912F910F90EB
:1006A0000FBE0F901F901895E091CD01F091CE01F3
:1006B000E05CFF4F8191919120813181805C9F4F5F
:1006C000821B930B60E470E00E949D06892B11F061
:1006D0000E94180308951F920F920FB60F921124D3
:1006E0002F933F938F939F93EF93FF932091BD019F
:1006F0003091BE018091BF019091C0012817390748
:1007000031F48091C1008F7D8093C10014C0E091CD
:10071000BF01F091C001E358FE4F20818091BF01DD
:100720009091C00101968F7390709093C001809357
:10073000BF012093C600FF91EF919F918F913F9150
:100740002F910F900FBE0F901F901895AF92BF92F0
:10075000DF92EF92FF920F931F93CF93DF93EC0101
:100760007A018B01DD24403081EE580780E0680774
:1007700080E0780711F0DD24D39491E0A92EB12C0C
:10078000EC89FD89DD2069F0C50108A002C0880F51
:10079000991F0A94E2F7808360E079E08DE390E0AE
:1007A00005C0108260E874E88EE190E0A80197012E
:1007B0000E94B00621503040404050405695479529
:1007C0003795279580E12030380720F0DD2011F0A3
:1007D000DD24D6CFE889F9893083EA89FB89208333
:1007E00019A2EE89FF89408121E030E0C9010C8C1B
:1007F00002C0880F991F0A94E2F7482B4083EE89C4
:10080000FF894081C9010D8C02C0880F991F0A948D
:10081000E2F7482B4083EE89FF894081C9010E8CA5
:1008200002C0880F991F0A94E2F7482B4083EE8993
:10083000FF8980810F8C02C0220F331F0A94E2F7D8
:10084000209528232083DF91CF911F910F91FF9056
:10085000EF90DF90BF90AF900895DC011C96ED9172
:10086000FC911D97E05CFF4F819191912081318136
:10087000805C9F4F821B930B60E470E00E949D069A
:100880000895DC011C96ED91FC911D97E05CFF4FF3
:1008900020813181E054F040DF01AE5BBF4F8D918C
:1008A0009C9111972817390719F42FEF3FEF07C0D4
:1008B0008D919C91E80FF91F8081282F30E0C901AC
:1008C0000895DC011C96ED91FC911D97E05CFF4FB3
:1008D00020813181E054F040DF01AE5BBF4F8D914C
:1008E0009C9111972817390719F42FEF3FEF10C08B
:1008F0008D919C911197E80FF91F20818D919C910A
:10090000119701968F73907011969C938E9330E09F
:10091000C9010895DC0191968C919197882339F053
:100920005496ED91FC915597808186FFF9CF919671
:100930001C920895CF93DF93EC01EE85FF85E05C78
:10094000FF4F20813181E054F0402F5F3F4F2F73E4
:100950003070DF01AE5BBF4F8D919C9111972817CE
:100960003907D1F3E05CFF4F80819181E054F04082
:10097000E80FF91F6083EE85FF85E05CFF4F318350
:100980002083EE89FF89208181E090E00F8C02C0F6
:10099000880F991F0A94E2F7282B208381E089A30E
:1009A000EC89FD8980818064808381E090E0DF9123
:1009B000CF9108951092C4011092C30188EE93E084
:1009C000A0E0B0E08093C5019093C601A093C70159
:1009D000B093C80183E191E09093C2018093C1017B
:1009E00089E391E09093CE018093CD018DE791E072
:1009F0009093D0018093CF0185EC90E09093D20149
:100A00008093D10184EC90E09093D4018093D30142
:100A100080EC90E09093D6018093D50181EC90E03A
:100A20009093D8018093D70182EC90E09093DA0103
:100A30008093D90186EC90E09093DC018093DB01F8
:100A400084E08093DD0183E08093DE0187E0809382
:100A5000DF0185E08093E00181E08093E10108956A
:100A60000895CF93DF930E94F7010E9430050E9402
:100A70009001C4E5D3E00E9449012097E1F30E9470
:100A80005403F9CFCF92DF92EF92FF920F931F930F
:100A9000CF93DF937C016B018A01C0E0D0E00FC0EF
:100AA000D6016D916D01D701ED91FC910190F0811E
:100AB000E02DC7010995C80FD91F0150104001153D
:100AC000110571F7CE01DF91CF911F910F91FF902A
:100AD000EF90DF90CF900895EF92FF920F931F93C6
:100AE0008C01DC01ED91FC910190F081E02D6DE035
:100AF00009957C01D801ED91FC910190F081E02DE8
:100B0000C8016AE009959C012E0D3F1DC9011F9186
:100B10000F91FF90EF900895CF93DF93EC01611553
:100B2000710519F420E030E00FC0DB010D900020CA
:100B3000E9F71197A61BB70BE881F9810280F381D1
:100B4000E02DAD0109959C01C901DF91CF91089578
:100B50004F925F927F928F929F92AF92BF92CF926D
:100B6000DF92EF92FF920F931F93DF93CF93CDB756
:100B7000DEB7A1970FB6F894DEBF0FBECDBF2C0134
:100B8000742ECB01223008F42AE019A231E2C32EE0
:100B9000D12CCC0EDD1E822E9924AA24BB24672DD5
:100BA000752FA50194010E94B00679018A01C80140
:100BB000B701A50194010E947E06472D461B0894AB
:100BC000C108D1084A3014F4405D01C0495CF60107
:100BD0004083E114F1040105110521F07E2C5F2D05
:100BE000C801DDCFC201B6010E948C05A1960FB6E7
:100BF000F894DEBF0FBECDBFCF91DF911F910F9153
:100C0000FF90EF90DF90CF90BF90AF909F908F902C
:100C10007F905F904F900895CF92DF92EF92FF9276
:100C20000F931F93CF93DF93EC016A017B01211592
:100C3000310541F4E881F9810190F081E02D642FC4
:100C400009951FC02A303105D1F477FF17C0E8811C
:100C5000F9810190F081E02D6DE209958C01442726
:100C60005527BA014C195D096E097F09CE012AE0AA
:100C70000E94A8059801280F391F04C02AE00E948D
:100C8000A8059C01C901DF91CF911F910F91FF90A1
:100C9000EF90DF90CF900895CF92DF92EF92FF9286
:100CA0000F931F936C017B019A010027F7FC0095BD
:100CB000102FB801A7010E940C068C01C6010E94EA
:100CC0006C05080F191FC8011F910F91FF90EF903D
:100CD000DF90CF900895EF92FF920F931F937C01C6
:100CE0000E948C058C01C7010E946C05080F191F1A
:100CF000C8011F910F91FF90EF900895629FD0015E
:100D0000739FF001829FE00DF11D649FE00DF11DC6
:100D1000929FF00D839FF00D749FF00D659FF00D75
:100D20009927729FB00DE11DF91F639FB00DE11D62
:100D3000F91FBD01CF011124089597FB092E072645
:100D40000AD077FD04D02ED006D000201AF470957A
:100D500061957F4F0895F6F7909581959F4F08957F
:100D6000A1E21A2EAA1BBB1BFD010DC0AA1FBB1FAF
:100D7000EE1FFF1FA217B307E407F50720F0A21B21
:100D8000B30BE40BF50B661F771F881F991F1A948E
:100D900069F760957095809590959B01AC01BD01B8
:100DA000CF010895AA1BBB1B51E107C0AA1FBB1F9F
:100DB000A617B70710F0A61BB70B881F991F5A95E7
:100DC000A9F780959095BC01CD010895EE0FFF1F06
:0C0DD0000590F491E02D0994F894FFCFF9
:100DDC00636865636B20627574746F6E000101004B
:100DEC000000009A0442052D04610441048A0400A9
:00000001FF
