:100000000C9462000C948A000C948A000C948A0070
:100010000C948A000C948A000C948A000C948A0038
:100020000C948A000C948A000C948A000C948A0028
:100030000C948A000C948A000C948A000C948A0018
:100040000C94F5000C948A000C946D020C94BF0281
:100050000C948A000C948A000C948A000C948A00F8
:100060000C948A000C948A000000000024002700F1
:100070002A0000000000250028002B0000000000DE
:1000800023002600290004040404040404040202DA
:100090000202020203030303030301020408102007
:1000A0004080010204081020010204081020000012
:1000B0000007000201000003040600000000000029
:1000C00000002E0411241FBECFEFD8E0DEBFCDBF4D
:1000D00011E0A0E0B1E0E0ECFAE002C005900D9282
:1000E000A232B107D9F711E0A2E2B1E001C01D923E
:1000F000AC3DB107E1F710E0C4ECD0E004C02297BA
:10010000FE010E945A05C23CD107C9F70E9485042E
:100110000C945E050C940000CF93DF9382E00E9464
:100120001902EC018091230190E0C817D90751F022
:100130000E943D0160932401709325018093260164
:10014000909327010E943D012091240130912501C7
:100150004091260150912701621B730B840B950B74
:1001600020910D0130910E0140910F01509110012D
:100170002617370748075907C0F48091220190E0FD
:10018000C817D90791F0C0932201C13071F48AEBEE
:1001900091E060E071E00E94FC048091280190E011
:1001A000882309F491E090932801609128018DE063
:1001B0000E94C501C0932301DF91CF9108958DE086
:1001C00061E00E94860182E062E00E94860181E097
:1001D00080932301809322018AEB91E040E855E26D
:1001E00060E070E00E94FA0208951F920F920FB62D
:1001F0000F9211242F933F938F939F93AF93BF93AD
:1002000080912D0190912E01A0912F01B09130018C
:10021000309131010196A11DB11D232F2D5F2D3786
:1002200020F02D570196A11DB11D2093310180931F
:100230002D0190932E01A0932F01B0933001809156
:10024000290190912A01A0912B01B0912C010196D6
:10025000A11DB11D8093290190932A01A0932B0128
:10026000B0932C01BF91AF919F918F913F912F91AE
:100270000F900FBE0F901F9018958FB7F894209194
:100280002D0130912E0140912F01509130018FBFEF
:10029000B901CA010895789484B5826084BD84B59B
:1002A000816084BD85B5826085BD85B5816085BD71
:1002B000EEE6F0E0808181608083E1E8F0E010828A
:1002C000808182608083808181608083E0E8F0E0CB
:1002D000808181608083E1EBF0E0808184608083B5
:1002E000E0EBF0E0808181608083EAE7F0E08081EC
:1002F000846080838081826080838081816080834C
:100300008081806880831092C1000895CF93DF932D
:10031000482F50E0CA0186569F4FFC0134914A573E
:100320005F4FFA018491882369F190E0880F991F4B
:10033000FC01E859FF4FA591B491FC01EE58FF4F25
:10034000C591D491662351F42FB7F8948C91932FD3
:10035000909589238C93888189230BC0623061F446
:100360002FB7F8948C91932F909589238C93888143
:10037000832B88832FBF06C09FB7F8948C91832B63
:100380008C939FBFDF91CF910895482F50E0CA0111
:1003900082559F4FFC012491CA0186569F4FFC0154
:1003A00094914A575F4FFA013491332309F440C0C6
:1003B000222351F1233071F0243028F42130A1F0B0
:1003C000223011F514C02630B1F02730C1F02430AE
:1003D000D9F404C0809180008F7703C080918000A1
:1003E0008F7D8093800010C084B58F7702C084B564
:1003F0008F7D84BD09C08091B0008F7703C080914C
:10040000B0008F7D8093B000E32FF0E0EE0FFF1F70
:10041000EE58FF4FA591B4912FB7F894662321F4BD
:100420008C919095892302C08C91892B8C932FBF3E
:100430000895682F70E0CB0182559F4FFC012491F5
:10044000CB0186569F4FFC0144916A577F4FFB01B9
:100450009491992319F420E030E03CC0222351F11B
:10046000233071F0243028F42130A1F0223011F52E
:1004700014C02630B1F02730C1F02430D9F404C0C4
:10048000809180008F7703C0809180008F7D809362
:10049000800010C084B58F7702C084B58F7D84BD85
:1004A00009C08091B0008F7703C08091B0008F7D2C
:1004B0008093B000892F90E0880F991F84589F4F38
:1004C000FC01A591B4918C9120E030E0842311F0DF
:1004D00021E030E0C901089508951F920F920FB6F0
:1004E0000F9211242F933F934F938F939F93EF93EA
:1004F000FF938091C00082FD1DC04091C6002091F5
:100500007201309173012F5F3F4F2F7330708091D4
:100510007401909175012817390771F0E09172010B
:10052000F0917301EE5CFE4F408330937301209392
:10053000720102C08091C600FF91EF919F918F914F
:100540004F913F912F910F900FBE0F901F901895D4
:10055000E091C601F091C701E05CFF4F819191915C
:1005600020813181805C9F4F821B930B60E470E09F
:100570000E940F05892B11F00E946C0208951F92B2
:100580000F920FB60F9211242F933F938F939F9347
:10059000EF93FF932091B6013091B7018091B8019C
:1005A0009091B9012817390731F48091C1008F7DEE
:1005B0008093C10014C0E091B801F091B901EA58EC
:1005C000FE4F20818091B8019091B90101968F73FF
:1005D00090709093B9018093B8012093C600FF9169
:1005E000EF919F918F913F912F910F900FBE0F90A0
:1005F0001F901895AF92BF92DF92EF92FF920F93E8
:100600001F93CF93DF93EC017A018B01DD244030FF
:1006100081EE580780E0680780E0780711F0DD245C
:10062000D39491E0A92EB12CEC89FD89DD2069F0ED
:10063000C50108A002C0880F991F0A94E2F78083C1
:1006400060E079E08DE390E005C0108260E874E836
:100650008EE190E0A80197010E94220521503040D0
:1006600040405040569547953795279580E120307A
:10067000380720F0DD2011F0DD24D6CFE889F98994
:100680003083EA89FB89208319A2EE89FF894081A2
:1006900021E030E0C9010C8C02C0880F991F0A9438
:1006A000E2F7482B4083EE89FF894081C9010D8C18
:1006B00002C0880F991F0A94E2F7482B4083EE8905
:1006C000FF894081C9010E8C02C0880F991F0A94CE
:1006D000E2F7482B4083EE89FF8980810F8C02C0AE
:1006E000220F331F0A94E2F7209528232083DF91FD
:1006F000CF911F910F91FF90EF90DF90BF90AF903F
:100700000895DC011C96ED91FC911D97E05CFF4F74
:100710008191919120813181805C9F4F821B930B4D
:1007200060E470E00E940F050895DC011C96ED91D5
:10073000FC911D97E05CFF4F20813181E054F04037
:10074000DF01AE5BBF4F8D919C9111972817390740
:1007500019F42FEF3FEF07C08D919C91E80FF91F1F
:100760008081282F30E0C9010895DC011C96ED91AD
:10077000FC911D97E05CFF4F20813181E054F040F7
:10078000DF01AE5BBF4F8D919C9111972817390700
:1007900019F42FEF3FEF10C08D919C911197E80F46
:1007A000F91F20818D919C91119701968F73907004
:1007B00011969C938E9330E0C9010895DC019196C7
:1007C0008C919197882339F05496ED91FC9155972F
:1007D000808186FFF9CF91961C920895CF93DF9385
:1007E000EC01EE85FF85E05CFF4F20813181E05414
:1007F000F0402F5F3F4F2F733070DF01AE5BBF4F74
:100800008D919C91119728173907D1F3E05CFF4F28
:1008100080819181E054F040E80FF91F6083EE85FC
:10082000FF85E05CFF4F31832083EE89FF892081C3
:1008300081E090E00F8C02C0880F991F0A94E2F7C4
:10084000282B208381E089A3EC89FD898081806445
:10085000808381E090E0DF91CF9108951092BD01F7
:100860001092BC0188EE93E0A0E0B0E08093BE015E
:100870009093BF01A093C001B093C10185E191E0C5
:100880009093BB018093BA0182E391E09093C701FA
:100890008093C60186E791E09093C9018093C801D7
:1008A00085EC90E09093CB018093CA0184EC90E0BA
:1008B0009093CD018093CC0180EC90E09093CF0198
:1008C0008093CE0181EC90E09093D1018093D00190
:1008D00082EC90E09093D3018093D20186EC90E07B
:1008E0009093D5018093D40184E08093D60183E076
:1008F0008093D70187E08093D80185E08093D90168
:1009000081E08093DA0108950895CF93DF930E94E8
:100910004B010E9484040E94DF00C8EAD2E00E94DA
:100920008C002097E1F30E94A802F9CFCF92DF92CA
:10093000EF92FF920F931F93CF93DF937C016B0194
:100940008A01C0E0D0E00FC0D6016D916D01D701E2
:10095000ED91FC910190F081E02DC7010995C80F40
:10096000D91F015010400115110571F7CE01DF911B
:10097000CF911F910F91FF90EF90DF90CF9008954E
:10098000EF92FF920F931F938C01DC01ED91FC918C
:100990000190F081E02D6DE009957C01D801ED9189
:1009A000FC910190F081E02DC8016AE009959C015D
:1009B0002E0D3F1DC9011F910F91FF90EF900895DB
:1009C000CF93DF93EC016115710519F420E030E05D
:1009D0000FC0DB010D900020E9F71197A61BB70BA4
:1009E000E881F9810280F381E02DAD0109959C0138
:1009F000C901DF91CF910895EF92FF920F931F935A
:100A00007C010E94E0048C01C7010E94C004080F11
:100A1000191FC8011F910F91FF90EF90089597FB48
:100A2000092E07260AD077FD04D02ED006D000204C
:100A30001AF4709561957F4F0895F6F7909581951A
:100A40009F4F0895A1E21A2EAA1BBB1BFD010DC0EA
:100A5000AA1FBB1FEE1FFF1FA217B307E407F5076E
:100A600020F0A21BB30BE40BF50B661F771F881F4A
:100A7000991F1A9469F760957095809590959B01E0
:100A8000AC01BD01CF010895AA1BBB1B51E107C0FA
:100A9000AA1FBB1FA617B70710F0A61BB70B881F0E
:100AA000991F5A95A9F780959095BC01CD0108959D
:100AB000EE0FFF1F0590F491E02D0994F894FFCFFD
:100AC0007468726F7567682074696D650032000024
:100AD0000000000000EE0396048103B5039503DED9
:020AE000030011
:00000001FF
