:100000000C9462000C948A000C948A000C948A0070
:100010000C948A000C948A000C948A000C948A0038
:100020000C948A000C94A5060C948A000C948A0007
:100030000C948A000C948A000C948A000C948A0018
:100040000C948B010C948A000C94B0020C94020363
:100050000C948A000C948A000C948A000C948A00F8
:100060000C948A000C948A000000000024002700F1
:100070002A0000000000250028002B0000000000DE
:1000800023002600290004040404040404040202DA
:100090000202020203030303030301020408102007
:1000A0004080010204081020010204081020000012
:1000B0000007000201000003040600000000000029
:1000C0000000710411241FBECFEFD8E0DEBFCDBF0A
:1000D00011E0A0E0B1E0EEE7FEE002C005900D9275
:1000E000A031B107D9F711E0A0E1B1E001C01D9244
:1000F000A93DB107E1F710E0C4ECD0E004C02297BD
:10010000FE010E943907C23CD107C9F70E94C8040A
:100110000C943D070C9400000E94D3012091100123
:10012000309111014091120150911301621B730B28
:10013000840B950B6536710581059105A8F060E08B
:1001400080911401882309F461E0609314018DE02B
:100150000E945B020E94D301609310017093110111
:10016000809312019093130108950E94D30120916E
:100170001001309111014091120150911301621B45
:10018000730B840B950B6955724080409040A8F02A
:1001900060E080911401882309F461E06093140108
:1001A0008DE00E945B020E94D30160931001709366
:1001B0001101809312019093130108950E94D301BD
:1001C00020911001309111014091120150911301C1
:1001D000621B730B840B950B695E734080409040EB
:1001E000A8F060E080911401882309F461E0609335
:1001F00014018DE00E945B020E94D3016093100104
:1002000070931101809312019093130108958091CE
:10021000150190911601892BD1F0809115019091D3
:100220001601019719F40E94DE00089580911501CE
:1002300090911601029719F40E94B50008958091DB
:10024000150190911601039711F40E948C000895F6
:1002500010921601109215011092180110921701B8
:1002600010921001109211011092120110921301BC
:10027000109214018AEA91E040E855E260E070E0F3
:100280000E943D038DE061E00E941C0268EE73E075
:1002900080E090E041E551E00E9402060E94500695
:1002A000089580911701909118010196909318017B
:1002B0008093170160911701709118018AEA91E00B
:1002C0004AE050E00E94E3058091170190911801E7
:1002D000059719F481E090E008C080911701909192
:1002E00018010A9739F482E090E090931601809308
:1002F0001501089580911701909118010F9751F4FD
:1003000083E090E0909316018093150110921801FC
:100310001092170108951F920F920FB60F92112499
:100320002F933F938F939F93AF93BF9380911D0122
:1003300090911E01A0911F01B091200130912101E7
:100340000196A11DB11D232F2D5F2D3720F02D57B4
:100350000196A11DB11D2093210180931D01909351
:100360001E01A0931F01B09320018091190190916B
:100370001A01A0911B01B0911C010196A11DB11D94
:100380008093190190931A01A0931B01B0931C0153
:10039000BF91AF919F918F913F912F910F900FBE81
:1003A0000F901F9018958FB7F89420911D013091F0
:1003B0001E0140911F01509120018FBFB901CA0158
:1003C0000895789484B5826084BD84B5816084BDCD
:1003D00085B5826085BD85B5816085BDEEE6F0E0BE
:1003E000808181608083E1E8F0E01082808182601A
:1003F0008083808181608083E0E8F0E0808181609B
:100400008083E1EBF0E0808184608083E0EBF0E0CA
:10041000808181608083EAE7F0E08081846080836E
:100420008081826080838081816080838081806818
:1004300080831092C1000895CF93DF93482F50E03E
:10044000CA0186569F4FFC0134914A575F4FFA010B
:100450008491882369F190E0880F991FFC01E85985
:10046000FF4FA591B491FC01EE58FF4FC591D49177
:10047000662351F42FB7F8948C91932F909589238C
:100480008C93888189230BC0623061F42FB7F89474
:100490008C91932F909589238C938881832B8883CB
:1004A0002FBF06C09FB7F8948C91832B8C939FBF6E
:1004B000DF91CF910895482F50E0CA0182559F4F98
:1004C000FC012491CA0186569F4FFC0194914A5722
:1004D0005F4FFA013491332309F440C0222351F1D4
:1004E000233071F0243028F42130A1F0223011F5AE
:1004F00014C02630B1F02730C1F02430D9F404C044
:10050000809180008F7703C0809180008F7D8093E1
:10051000800010C084B58F7702C084B58F7D84BD04
:1005200009C08091B0008F7703C08091B0008F7DAB
:100530008093B000E32FF0E0EE0FFF1FEE58FF4F67
:10054000A591B4912FB7F894662321F48C919095DE
:10055000892302C08C91892B8C932FBF0895089515
:100560001F920F920FB60F9211242F933F934F9328
:100570008F939F93EF93FF938091C00082FD1DC0E6
:100580004091C60020916201309163012F5F3F4F7F
:100590002F7330708091640190916501281739079D
:1005A00071F0E0916201F0916301EE5DFE4F4083D6
:1005B000309363012093620102C08091C600FF91D5
:1005C000EF919F918F914F913F912F910F900FBE7F
:1005D0000F901F901895E091B601F091B701E05C83
:1005E000FF4F8191919120813181805C9F4F821BCF
:1005F000930B60E470E00E94EE06892B11F00E94DC
:10060000AF0208951F920F920FB60F9211242F93ED
:100610003F938F939F93EF93FF932091A601309187
:10062000A7018091A8019091A9012817390731F4F9
:100630008091C1008F7D8093C10014C0E091A8011A
:10064000F091A901EA59FE4F20818091A801909173
:10065000A90101968F7390709093A9018093A801CE
:100660002093C600FF91EF919F918F913F912F9121
:100670000F900FBE0F901F901895AF92BF92DF9210
:10068000EF92FF920F931F93CF93DF93EC017A01C8
:100690008B01DD24403081EE580780E0680780E060
:1006A000780711F0DD24D39491E0A92EB12CEC89C8
:1006B000FD89DD2069F0C50108A002C0880F991FDF
:1006C0000A94E2F7808360E079E08DE390E005C072
:1006D000108260E874E88EE190E0A80197010E9422
:1006E000010721503040404050405695479537957E
:1006F000279580E12030380720F0DD2011F0DD243F
:10070000D6CFE889F9893083EA89FB89208319A249
:10071000EE89FF89408121E030E0C9010C8C02C0E4
:10072000880F991F0A94E2F7482B4083EE89FF89CE
:100730004081C9010D8C02C0880F991F0A94E2F70D
:10074000482B4083EE89FF894081C9010E8C02C08D
:10075000880F991F0A94E2F7482B4083EE89FF899E
:1007600080810F8C02C0220F331F0A94E2F720957C
:1007700028232083DF91CF911F910F91FF90EF905D
:10078000DF90BF90AF900895DC011C96ED91FC9135
:100790001D97E05CFF4F8191919120813181805CB8
:1007A0009F4F821B930B60E470E00E94EE06089559
:1007B000DC011C96ED91FC911D97E05CFF4F2081C0
:1007C0003181E054F040DF01AE5BBF4F8D919C91D1
:1007D00011972817390719F42FEF3FEF07C08D91B4
:1007E0009C91E80FF91F8081282F30E0C9010895FE
:1007F000DC011C96ED91FC911D97E05CFF4F208180
:100800003181E054F040DF01AE5BBF4F8D919C9190
:1008100011972817390719F42FEF3FEF10C08D916A
:100820009C911197E80FF91F20818D919C91119750
:1008300001968F73907011969C938E9330E0C9014E
:100840000895DC0191968C919197882339F0549604
:10085000ED91FC915597808186FFF9CF91961C927E
:100860000895CF93DF93EC01EE85FF85E05CFF4FA9
:1008700020813181E054F0402F5F3F4F2F73307063
:10088000DF01AE5BBF4F8D919C91119728173907FF
:10089000D1F3E05CFF4F80819181E054F040E80F9C
:1008A000F91F6083EE85FF85E05CFF4F3183208375
:1008B000EE89FF89208181E090E00F8C02C0880FD3
:1008C000991F0A94E2F7282B208381E089A3EC8901
:1008D000FD8980818064808381E090E0DF91CF9109
:1008E00008951092AD011092AC0188EE93E0A0E063
:1008F000B0E08093AE019093AF01A093B001B093AC
:10090000B10184E091E09093AB018093AA0182E26F
:1009100091E09093B7018093B60186E691E09093C1
:10092000B9018093B80185EC90E09093BB0180936E
:10093000BA0184EC90E09093BD018093BC0180ECFF
:1009400090E09093BF018093BE0181EC90E0909382
:10095000C1018093C00182EC90E09093C301809329
:10096000C20186EC90E09093C5018093C40184E0BD
:100970008093C60183E08093C70187E08093C8011C
:1009800085E08093C90181E08093CA0108950895AC
:10099000CF93DF930E94E1010E94C7040E942801C7
:1009A000CBEED2E00E9407012097E1F30E94EB0218
:1009B000F9CFCF92DF92EF92FF920F931F93CF93D5
:1009C000DF937C016B018A01C0E0D0E00FC0D6014B
:1009D0006D916D01D701ED91FC910190F081E02DB9
:1009E000C7010995C80FD91F015010400115110505
:1009F00071F7CE01DF91CF911F910F91FF90EF9092
:100A0000DF90CF900895EF92FF920F931F938C0188
:100A1000DC01ED91FC910190F081E02D6DE00995F4
:100A20007C01D801ED91FC910190F081E02DC8018D
:100A30006AE009959C012E0D3F1DC9011F910F9180
:100A4000FF90EF900895CF93DF93EC01611571054E
:100A500019F420E030E00FC0DB010D900020E9F731
:100A60001197A61BB70BE881F9810280F381E02D75
:100A7000AD0109959C01C901DF91CF9108954F9275
:100A80005F927F928F929F92AF92BF92CF92DF92AE
:100A9000EF92FF920F931F93DF93CF93CDB7DEB703
:100AA000A1970FB6F894DEBF0FBECDBF2C01742EF8
:100AB000CB01223008F42AE019A231E2C32ED12C56
:100AC000CC0EDD1E822E9924AA24BB24672D752FFF
:100AD000A50194010E94010779018A01C801B701AB
:100AE000A50194010E94CF06472D461B0894C1081A
:100AF000D1084A3014F4405D01C0495CF6014083DE
:100B0000E114F1040105110521F07E2C5F2DC801CF
:100B1000DDCFC201B6010E942305A1960FB6F8945D
:100B2000DEBF0FBECDBFCF91DF911F910F91FF9020
:100B3000EF90DF90CF90BF90AF909F908F907F907D
:100B40005F904F900895CF92DF92EF92FF920F93B4
:100B50001F93CF93DF93EC016A017B0121153105CF
:100B600041F4E881F9810190F081E02D642F09952D
:100B70001FC02A303105D1F477FF17C0E881F98111
:100B80000190F081E02D6DE209958C0144275527F5
:100B9000BA014C195D096E097F09CE012AE00E9455
:100BA0003F059801280F391F04C02AE00E943F0525
:100BB0009C01C901DF91CF911F910F91FF90EF90A0
:100BC000DF90CF900895CF92DF92EF92FF920F9334
:100BD0001F936C017B019A010027F7FC0095102FF1
:100BE000B801A7010E94A3058C01C6010E9403055C
:100BF000080F191FC8011F910F91FF90EF90DF9010
:100C0000CF9008950F931F938B019C0180917000EA
:100C10008E7F809370008091B0008C7F8093B000B5
:100C20008091B100877F8093B1008091B6008F7D65
:100C30008093B600809170008D7F809370008091CA
:100C4000B10084608093B1008091B1008C7F80936B
:100C5000B10086E090E09093D8018093D701011510
:100C600011052105310569F481E090E0A0E0B0E0D4
:100C70008093CC019093CD01A093CE01B093CF018E
:100C800008C00093CC011093CD012093CE01309386
:100C9000CF015093D1014093D0011F910F9108953E
:100CA0001092D2011092D3011092D4011092D5016A
:100CB0001092D6018091D7019091D8018093B20013
:100CC000E0E7F0E080818160808308958091D20127
:100CD0009091D301A091D401B091D5010196A11DAD
:100CE000B11D8093D2019093D301A093D401B0930E
:100CF000D5012091D2013091D3014091D40150917E
:100D0000D5018091CC019091CD01A091CE01B091FF
:100D1000CF01281739074A075B07B0F08091D60149
:100D2000882391F481E08093D6011092D201109231
:100D3000D3011092D4011092D501E091D001F0912D
:100D4000D10109951092D60108951F920F920FB606
:100D50000F9211242F933F934F935F936F937F9341
:100D60008F939F93AF93BF93EF93FF938091D7019E
:100D70009091D8018093B2000E946606FF91EF9196
:100D8000BF91AF919F918F917F916F915F914F91A3
:100D90003F912F910F900FBE0F901F901895629F5B
:100DA000D001739FF001829FE00DF11D649FE00D63
:100DB000F11D929FF00D839FF00D749FF00D659FC4
:100DC000F00D9927729FB00DE11DF91F639FB00DC3
:100DD000E11DF91FBD01CF011124089597FB092ED4
:100DE00007260AD077FD04D02ED006D000201AF4B2
:100DF000709561957F4F0895F6F7909581959F4F77
:100E00000895A1E21A2EAA1BBB1BFD010DC0AA1F4B
:100E1000BB1FEE1FFF1FA217B307E407F50720F063
:100E2000A21BB30BE40BF50B661F771F881F991FDE
:100E30001A9469F760957095809590959B01AC0127
:100E4000BD01CF010895AA1BBB1B51E107C0AA1F1A
:100E5000BB1FA617B70710F0A61BB70B881F991F5B
:100E60005A95A9F780959095BC01CD010895EE0F94
:0E0E7000FF1F0590F491E02D0994F894FFCF38
:100E7E00000000003104D904C403F803D803210490
:00000001FF
