:100000000C9462000C948A000C948A000C948A0070
:100010000C948A000C948A000C948A000C948A0038
:100020000C948A000C948A000C948A000C948A0028
:100030000C948A000C948A000C948A000C948A0018
:100040000C9415020C948A000C948D030C94DF031D
:100050000C948A000C948A000C948A000C948A00F8
:100060000C948A000C948A000000000024002700F1
:100070002A0000000000250028002B0000000000DE
:1000800023002600290004040404040404040202DA
:100090000202020203030303030301020408102007
:1000A0004080010204081020010204081020000012
:1000B0000007000201000003040600000000000029
:1000C00000004E0511241FBECFEFD8E0DEBFCDBF2C
:1000D00011E0A0E0B1E0E4ECFEE002C005900D927A
:1000E000A432B107D9F711E0A4E2B1E001C01D923A
:1000F000A03FB107E1F710E0C4ECD0E004C02297C4
:10010000FE010E945C07C23CD107C9F70E94A50509
:100110000C9460070C9400000E945D022091240161
:10012000309125014091260150912701621B730BEC
:10013000840B950B695E73408040904010F480E022
:1001400008950E945D0260932401709325018093BD
:1001500026019093270181E008950E945D0220917D
:1001600028013091290140912A0150912B01621BF5
:10017000730B840B950B6536710581059105A8F00D
:1001800060E080913401882309F461E060933401D8
:100190008DE00E94E5020E945D0260932801709349
:1001A000290180932A0190932B0108950E945D02FA
:1001B000209128013091290140912A0150912B0171
:1001C000621B730B840B950B695572408040904005
:1001D000A8F060E080913401882309F461E0609325
:1001E00034018DE00E94E5020E945D0260932801C7
:1001F0007093290180932A0190932B0108950E9406
:100200005D02209128013091290140912A015091ED
:100210002B01621B730B840B950B695E734080404E
:100220009040A8F060E080913401882309F461E0F7
:10023000609334018DE00E94E5020E945D026093AC
:1002400028017093290180932A0190932B0108952E
:10025000CF93DF9382E00E943903EC018091370154
:1002600090913801C817D90751F00E945D02609340
:1002700030017093310180933201909333010E94D9
:100280005D02209130013091310140913201509155
:100290003301621B730B840B950B2091100130917D
:1002A0001101409112015091130126173707480799
:1002B000590728F4109236011092350106C081E0EA
:1002C00090E09093360180933501809135019091B3
:1002D0003601892B09F45CC08EEC91E060E071E09E
:1002E0000E94DF060E948C00882381F06091390112
:1002F00070913A016F5F7F4F70933A0160933901BB
:100300008EEC91E04AE050E00E94C00680913901F5
:1003100090913A018530910519F481E090E00AC08E
:100320008A30910519F482E090E004C00F9731F40F
:1003300083E090E090933C0180933B0180913B01EE
:1003400090913C01009719F40E94FF001CC081307D
:10035000910519F40E94D60016C08230910519F457
:100360000E94AD0010C00397F1F420E030E08091CE
:10037000350190913601892B11F421E030E0309362
:10038000360120933501D0933801C09337010BC05B
:100390008EEC91E067E071E00E94DF068DE060E0A6
:1003A0000E94E502F0CFDF91CF91089510923C01B9
:1003B00010923B01109236011092350110923A01D1
:1003C00010923901109224011092250110922601F9
:1003D00010922701109228011092290110922A01EF
:1003E00010922B0110922C0110922D0110922E01CF
:1003F00010922F01109230011092310110923201AF
:1004000010923301109234018EEC91E040E855E2F5
:1004100060E070E00E941A048DE061E00E94A60294
:1004200082E062E00E94A60208951F920F920FB62A
:100430000F9211242F933F938F939F93AF93BF936A
:100440008091410190914201A0914301B0914401FA
:10045000309145010196A11DB11D232F2D5F2D3730
:1004600020F02D570196A11DB11D209345018093C9
:10047000410190934201A0934301B09344018091C4
:100480003D0190913E01A0913F01B0914001019644
:10049000A11DB11D80933D0190933E01A0933F01AA
:1004A000B0934001BF91AF919F918F913F912F9158
:1004B0000F900FBE0F901F9018958FB7F894209152
:1004C00041013091420140914301509144018FBF5D
:1004D000B901CA010895789484B5826084BD84B559
:1004E000816084BD85B5826085BD85B5816085BD2F
:1004F000EEE6F0E0808181608083E1E8F0E0108248
:10050000808182608083808181608083E0E8F0E088
:10051000808181608083E1EBF0E080818460808372
:10052000E0EBF0E0808181608083EAE7F0E08081A9
:100530008460808380818260808380818160808309
:100540008081806880831092C1000895CF93DF93EB
:10055000482F50E0CA0186569F4FFC0134914A57FC
:100560005F4FFA018491882369F190E0880F991F09
:10057000FC01E859FF4FA591B491FC01EE58FF4FE3
:10058000C591D491662351F42FB7F8948C91932F91
:10059000909589238C93888189230BC0623061F404
:1005A0002FB7F8948C91932F909589238C93888101
:1005B000832B88832FBF06C09FB7F8948C91832B21
:1005C0008C939FBFDF91CF910895482F50E0CA01CF
:1005D00082559F4FFC012491CA0186569F4FFC0112
:1005E00094914A575F4FFA013491332309F440C084
:1005F000222351F1233071F0243028F42130A1F06E
:10060000223011F514C02630B1F02730C1F024306B
:10061000D9F404C0809180008F7703C0809180005E
:100620008F7D8093800010C084B58F7702C084B521
:100630008F7D84BD09C08091B0008F7703C0809109
:10064000B0008F7D8093B000E32FF0E0EE0FFF1F2E
:10065000EE58FF4FA591B4912FB7F894662321F47B
:100660008C919095892302C08C91892B8C932FBFFC
:100670000895682F70E0CB0182559F4FFC012491B3
:10068000CB0186569F4FFC0144916A577F4FFB0177
:100690009491992319F420E030E03CC0222351F1D9
:1006A000233071F0243028F42130A1F0223011F5EC
:1006B00014C02630B1F02730C1F02430D9F404C082
:1006C000809180008F7703C0809180008F7D809320
:1006D000800010C084B58F7702C084B58F7D84BD43
:1006E00009C08091B0008F7703C08091B0008F7DEA
:1006F0008093B000892F90E0880F991F84589F4FF6
:10070000FC01A591B4918C9120E030E0842311F09C
:1007100021E030E0C901089508951F920F920FB6AD
:100720000F9211242F933F934F938F939F93EF93A7
:10073000FF938091C00082FD1DC04091C6002091B2
:100740008601309187012F5F3F4F2F73307080916A
:100750008801909189012817390771F0E09186018D
:10076000F0918701EA5BFE4F40833093870120932D
:10077000860102C08091C600FF91EF919F918F91F9
:100780004F913F912F910F900FBE0F901F90189592
:10079000E091DA01F091DB01E05CFF4F81919191F2
:1007A00020813181805C9F4F821B930B60E470E05D
:1007B0000E941107892B11F00E948C0308951F924B
:1007C0000F920FB60F9211242F933F938F939F9305
:1007D000EF93FF932091CA013091CB018091CC011E
:1007E0009091CD012817390731F48091C1008F7D98
:1007F0008093C10014C0E091CC01F091CD01E65787
:10080000FE4F20818091CC019091CD0101968F7394
:1008100090709093CD018093CC012093C600FF91FE
:10082000EF919F918F913F912F910F900FBE0F905D
:100830001F901895AF92BF92DF92EF92FF920F93A5
:100840001F93CF93DF93EC017A018B01DD244030BD
:1008500081EE580780E0680780E0780711F0DD241A
:10086000D39491E0A92EB12CEC89FD89DD2069F0AB
:10087000C50108A002C0880F991F0A94E2F780837F
:1008800060E079E08DE390E005C0108260E874E8F4
:100890008EE190E0A80197010E942407215030408A
:1008A00040405040569547953795279580E1203038
:1008B000380720F0DD2011F0DD24D6CFE889F98952
:1008C0003083EA89FB89208319A2EE89FF89408160
:1008D00021E030E0C9010C8C02C0880F991F0A94F6
:1008E000E2F7482B4083EE89FF894081C9010D8CD6
:1008F00002C0880F991F0A94E2F7482B4083EE89C3
:10090000FF894081C9010E8C02C0880F991F0A948B
:10091000E2F7482B4083EE89FF8980810F8C02C06B
:10092000220F331F0A94E2F7209528232083DF91BA
:10093000CF911F910F91FF90EF90DF90BF90AF90FC
:100940000895DC011C96ED91FC911D97E05CFF4F32
:100950008191919120813181805C9F4F821B930B0B
:1009600060E470E00E9411070895DC011C96ED918F
:10097000FC911D97E05CFF4F20813181E054F040F5
:10098000DF01AE5BBF4F8D919C91119728173907FE
:1009900019F42FEF3FEF07C08D919C91E80FF91FDD
:1009A0008081282F30E0C9010895DC011C96ED916B
:1009B000FC911D97E05CFF4F20813181E054F040B5
:1009C000DF01AE5BBF4F8D919C91119728173907BE
:1009D00019F42FEF3FEF10C08D919C911197E80F04
:1009E000F91F20818D919C91119701968F739070C2
:1009F00011969C938E9330E0C9010895DC01919685
:100A00008C919197882339F05496ED91FC915597EC
:100A1000808186FFF9CF91961C920895CF93DF9342
:100A2000EC01EE85FF85E05CFF4F20813181E054D1
:100A3000F0402F5F3F4F2F733070DF01AE5BBF4F31
:100A40008D919C91119728173907D1F3E05CFF4FE6
:100A500080819181E054F040E80FF91F6083EE85BA
:100A6000FF85E05CFF4F31832083EE89FF89208181
:100A700081E090E00F8C02C0880F991F0A94E2F782
:100A8000282B208381E089A3EC89FD898081806403
:100A9000808381E090E0DF91CF9108951092D101A1
:100AA0001092D00188EE93E0A0E0B0E08093D201F4
:100AB0009093D301A093D401B093D50188E191E044
:100AC0009093CF018093CE0186E491E09093DB0177
:100AD0008093DA018AE891E09093DD018093DC0154
:100AE00085EC90E09093DF018093DE0184EC90E050
:100AF0009093E1018093E00180EC90E09093E3011A
:100B00008093E20181EC90E09093E5018093E40111
:100B100082EC90E09093E7018093E60186EC90E010
:100B20009093E9018093E80184E08093EA0183E0F7
:100B30008093EB0187E08093EC0185E08093ED01E9
:100B400081E08093EE0108950895CF93DF930E9492
:100B50006B020E94A4050E94D601C8ECD3E00E945B
:100B600028012097E1F30E94C803F9CFCF92DF92CA
:100B7000EF92FF920F931F93CF93DF937C016B0152
:100B80008A01C0E0D0E00FC0D6016D916D01D701A0
:100B9000ED91FC910190F081E02DC7010995C80FFE
:100BA000D91F015010400115110571F7CE01DF91D9
:100BB000CF911F910F91FF90EF90DF90CF9008950C
:100BC000EF92FF920F931F938C01DC01ED91FC914A
:100BD0000190F081E02D6DE009957C01D801ED9147
:100BE000FC910190F081E02DC8016AE009959C011B
:100BF0002E0D3F1DC9011F910F91FF90EF90089599
:100C0000CF93DF93EC016115710519F420E030E01A
:100C10000FC0DB010D900020E9F71197A61BB70B61
:100C2000E881F9810280F381E02DAD0109959C01F5
:100C3000C901DF91CF9108954F925F927F928F9279
:100C40009F92AF92BF92CF92DF92EF92FF920F935B
:100C50001F93DF93CF93CDB7DEB7A1970FB6F8946C
:100C6000DEBF0FBECDBF2C01742ECB01223008F4A5
:100C70002AE019A231E2C32ED12CCC0EDD1E822E29
:100C80009924AA24BB24672D752FA50194010E94E5
:100C9000240779018A01C801B701A50194010E94C6
:100CA000F206472D461B0894C108D1084A3014F4B7
:100CB000405D01C0495CF6014083E114F104010587
:100CC000110521F07E2C5F2DC801DDCFC201B601D8
:100CD0000E940006A1960FB6F894DEBF0FBECDBFEE
:100CE000CF91DF911F910F91FF90EF90DF90CF9008
:100CF000BF90AF909F908F907F905F904F9008959E
:100D0000CF92DF92EF92FF920F931F93CF93DF93D7
:100D1000EC016A017B012115310541F4E881F9817B
:100D20000190F081E02D642F09951FC02A30310514
:100D3000D1F477FF17C0E881F9810190F081E02DAF
:100D40006DE209958C0144275527BA014C195D09BC
:100D50006E097F09CE012AE00E941C069801280F27
:100D6000391F04C02AE00E941C069C01C901DF91C2
:100D7000CF911F910F91FF90EF90DF90CF9008954A
:100D8000CF92DF92EF92FF920F931F936C017B0142
:100D90009A010027F7FC0095102FB801A7010E94C7
:100DA00080068C01C6010E94E005080F191FC801CA
:100DB0001F910F91FF90EF90DF90CF900895EF92E9
:100DC000FF920F931F937C010E9400068C01C701C4
:100DD0000E94E005080F191FC8011F910F91FF9095
:100DE000EF900895629FD001739FF001829FE00D04
:100DF000F11D649FE00DF11D929FF00D839FF00D9A
:100E0000749FF00D659FF00D9927729FB00DE11D45
:100E1000F91F639FB00DE11DF91FBD01CF01112422
:100E2000089597FB092E07260AD077FD04D02ED00F
:100E300006D000201AF4709561957F4F0895F6F75B
:100E4000909581959F4F0895A1E21A2EAA1BBB1B76
:100E5000FD010DC0AA1FBB1FEE1FFF1FA217B30786
:100E6000E407F50720F0A21BB30BE40BF50B661F9C
:100E7000771F881F991F1A9469F760957095809560
:100E800090959B01AC01BD01CF010895AA1BBB1B2E
:100E900051E107C0AA1FBB1FA617B70710F0A61B7A
:100EA000B70B881F991F5A95A9F780959095BC019B
:100EB000CD010895EE0FFF1F0590F491E02D0994E8
:040EC000F894FFCFD4
:100EC40061637469766500494E414354495645004F
:100ED40032000000000000000E05B605A104D50490
:040EE400B504FE044F
:00000001FF
