:100000000C9462000C948A000C948A000C948A0070
:100010000C948A000C948A000C948A000C948A0038
:100020000C948A000C948A000C948A000C948A0028
:100030000C948A000C948A000C948A000C948A0018
:100040000C9459020C948A000C94D1030C94230450
:100050000C948A000C948A000C948A000C948A00F8
:100060000C948A000C948A000000000024002700F1
:100070002A0000000000250028002B0000000000DE
:1000800023002600290004040404040404040202DA
:100090000202020203030303030301020408102007
:1000A0004080010204081020010204081020000012
:1000B0000007000201000003040600000000000029
:1000C0000000920511241FBECFEFD8E0DEBFCDBFE8
:1000D00011E0A0E0B1E0E2E9FFE002C005900D927E
:1000E000AC32B107D9F711E0ACE2B1E001C01D922A
:1000F000A33FB107E1F710E0C4ECD0E004C02297C1
:10010000FE010E94C307C23CD107C9F70E94E9055E
:100110000C94C7070C9400000E94A10220912C01AE
:1001200030912D0140912E0150912F01621B730BD4
:10013000840B950B695E73408040904010F480E022
:1001400008950E94A10260932C0170932D01809369
:100150002E0190932F0181E008950E94A102209129
:100160003001309131014091320150913301621BD5
:10017000730B840B950B6536710581059105A8F00D
:1001800060E080913801882309F461E060933801D0
:100190008DE00E9429030E94A102609330017093B8
:1001A0003101809332019093330108950E94A1029E
:1001B0002091300130913101409132015091330151
:1001C000621B730B840B950B695572408040904005
:1001D000A8F060E080913801882309F461E0609321
:1001E00038018DE00E9429030E94A1026093300132
:1001F00070933101809332019093330108950E94EE
:10020000A102209130013091310140913201509191
:100210003301621B730B840B950B695E7340804046
:100220009040A8F060E080913801882309F461E0F3
:10023000609338018DE00E9429030E94A10260931F
:10024000300170933101809332019093330108950E
:100250008091390190913A018130910559F08430B3
:10026000910519F482E090E005C08730910539F4DA
:1002700083E090E090933C0180933B0108950A97BE
:1002800061F490E080913D01882309F491E090931E
:100290003D018DE060E00E9429030895009759F424
:1002A00081ED91E060E071E00E9446078DE060E042
:1002B0000E94290308958130910549F481ED91E070
:1002C00066E071E00E9446070E94FF0008958230B8
:1002D000910549F481ED91E06CE071E00E944607E0
:1002E0000E94D6000895039741F481ED91E062E108
:1002F00071E00E9446070E94AD0008950E948C00A4
:10030000882381F06091390170913A016F5F7F4FCE
:1003100070933A016093390181ED91E04AE050E039
:100320000E9427070895CF93DF9382E00E947D0308
:10033000EC0180913E0190E0C817D90751F00E946E
:10034000A10260933401709335018093360190933C
:1003500037010E94A1022091340130913501409172
:10036000360150913701621B730B840B950B209162
:1003700018013091190140911A0150911B01261763
:1003800037074807590790F480913F0190E0C8175C
:10039000D90761F0C0933F01C13041F490E08091F2
:1003A0003D01882309F491E090933D01C0933E0103
:1003B000DF91CF91089540912C0150912D016091D2
:1003C0002E0170912F0181ED91E02AE030E00E9432
:1003D000D3060E94930180913D01882359F00E9429
:1003E0007E010E94280180913B0190913C010E9476
:1003F0004E01089510923C0110923B0110923D0174
:100400001092380110923A011092390110922C0189
:1004100010922D0110922E0110922F011092300196
:100420001092310110923201109233011092340176
:1004300010923501109236011092370108951092F2
:100440003C0110923B0110923D0110923801109234
:100450003A011092390110922C0110922D01109244
:100460002E0110922F011092300110923101109242
:100470003201109233011092340110923501109222
:1004800036011092370181E080933F0180933E0155
:1004900081ED91E040E855E260E070E00E945E048A
:1004A0008DE061E00E94EA0282E062E00E94EA02DE
:1004B00008951F920F920FB60F9211242F933F931E
:1004C0008F939F93AF93BF93809144019091450187
:1004D000A0914601B0914701309148010196A11DBC
:1004E000B11D232F2D5F2D3720F02D570196A11D13
:1004F000B11D209348018093440190934501A0933E
:100500004601B09347018091400190914101A09133
:100510004201B09143010196A11DB11D809340019C
:1005200090934101A0934201B0934301BF91AF91D9
:100530009F918F913F912F910F900FBE0F901F9021
:1005400018958FB7F894209144013091450140915E
:100550004601509147018FBFB901CA0108957894AF
:1005600084B5826084BD84B5816084BD85B58260B8
:1005700085BD85B5816085BDEEE6F0E08081816056
:100580008083E1E8F0E01082808182608083808156
:1005900081608083E0E8F0E0808181608083E1EB2E
:1005A000F0E0808184608083E0EBF0E08081816016
:1005B0008083EAE7F0E080818460808380818260CC
:1005C00080838081816080838081806880831092B5
:1005D000C1000895CF93DF93482F50E0CA0186569B
:1005E0009F4FFC0134914A575F4FFA018491882351
:1005F00069F190E0880F991FFC01E859FF4FA59120
:10060000B491FC01EE58FF4FC591D491662351F48B
:100610002FB7F8948C91932F909589238C93888190
:1006200089230BC0623061F42FB7F8948C91932F1B
:10063000909589238C938881832B88832FBF06C054
:100640009FB7F8948C91832B8C939FBFDF91CF91B0
:100650000895482F50E0CA0182559F4FFC01249114
:10066000CA0186569F4FFC0194914A575F4FFA0189
:100670003491332309F440C0222351F1233071F027
:10068000243028F42130A1F0223011F514C0263096
:10069000B1F02730C1F02430D9F404C0809180003B
:1006A0008F7703C0809180008F7D8093800010C081
:1006B00084B58F7702C084B58F7D84BD09C08091D9
:1006C000B0008F7703C08091B0008F7D8093B00021
:1006D000E32FF0E0EE0FFF1FEE58FF4FA591B4910E
:1006E0002FB7F894662321F48C919095892302C04A
:1006F0008C91892B8C932FBF0895682F70E0CB01CC
:1007000082559F4FFC012491CB0186569F4FFC01DF
:1007100044916A577F4FFB019491992319F420E08B
:1007200030E03CC0222351F1233071F0243028F412
:100730002130A1F0223011F514C02630B1F027305D
:10074000C1F02430D9F404C0809180008F7703C0B9
:10075000809180008F7D8093800010C084B58F775A
:1007600002C084B58F7D84BD09C08091B0008F77B1
:1007700003C08091B0008F7D8093B000892F90E0FE
:10078000880F991F84589F4FFC01A591B4918C91BB
:1007900020E030E0842311F021E030E0C901089529
:1007A00008951F920F920FB60F9211242F933F932B
:1007B0004F938F939F93EF93FF938091C00082FD9F
:1007C0001DC04091C6002091890130918A012F5FA0
:1007D0003F4F2F73307080918B0190918C012817BF
:1007E000390771F0E0918901F0918A01E75BFE4FD2
:1007F000408330938A012093890102C08091C60012
:10080000FF91EF919F918F914F913F912F910F9079
:100810000FBE0F901F901895E091DD01F091DE0161
:10082000E05CFF4F8191919120813181805C9F4FED
:10083000821B930B60E470E00E947807892B11F013
:100840000E94D00308951F920F920FB60F921124A9
:100850002F933F938F939F93EF93FF932091CD011D
:100860003091CE018091CF019091D00128173907A6
:1008700031F48091C1008F7D8093C10014C0E0915C
:10088000CF01F091D001E357FE4F20818091CF013D
:100890009091D00101968F7390709093D0018093C6
:1008A000CF012093C600FF91EF919F918F913F91CF
:1008B0002F910F900FBE0F901F901895AF92BF927F
:1008C000DF92EF92FF920F931F93CF93DF93EC0190
:1008D0007A018B01DD24403081EE580780E0680703
:1008E00080E0780711F0DD24D39491E0A92EB12C9B
:1008F000EC89FD89DD2069F0C50108A002C0880FE0
:10090000991F0A94E2F7808360E079E08DE390E03C
:1009100005C0108260E874E88EE190E0A8019701BC
:100920000E948B07215030404040504056954795DB
:100930003795279580E12030380720F0DD2011F031
:10094000DD24D6CFE889F9893083EA89FB892083C1
:1009500019A2EE89FF89408121E030E0C9010C8CA9
:1009600002C0880F991F0A94E2F7482B4083EE8952
:10097000FF894081C9010D8C02C0880F991F0A941C
:10098000E2F7482B4083EE89FF894081C9010E8C34
:1009900002C0880F991F0A94E2F7482B4083EE8922
:1009A000FF8980810F8C02C0220F331F0A94E2F767
:1009B000209528232083DF91CF911F910F91FF90E5
:1009C000EF90DF90BF90AF900895DC011C96ED9101
:1009D000FC911D97E05CFF4F8191919120813181C5
:1009E000805C9F4F821B930B60E470E00E9478074D
:1009F0000895DC011C96ED91FC911D97E05CFF4F82
:100A000020813181E054F040DF01AE5BBF4F8D911A
:100A10009C9111972817390719F42FEF3FEF07C062
:100A20008D919C91E80FF91F8081282F30E0C9013A
:100A30000895DC011C96ED91FC911D97E05CFF4F41
:100A400020813181E054F040DF01AE5BBF4F8D91DA
:100A50009C9111972817390719F42FEF3FEF10C019
:100A60008D919C911197E80FF91F20818D919C9198
:100A7000119701968F73907011969C938E9330E02E
:100A8000C9010895DC0191968C919197882339F0E2
:100A90005496ED91FC915597808186FFF9CF919600
:100AA0001C920895CF93DF93EC01EE85FF85E05C07
:100AB000FF4F20813181E054F0402F5F3F4F2F7373
:100AC0003070DF01AE5BBF4F8D919C91119728175D
:100AD0003907D1F3E05CFF4F80819181E054F04011
:100AE000E80FF91F6083EE85FF85E05CFF4F3183DF
:100AF0002083EE89FF89208181E090E00F8C02C085
:100B0000880F991F0A94E2F7282B208381E089A39C
:100B1000EC89FD8980818064808381E090E0DF91B1
:100B2000CF9108951092D4011092D30188EE93E0F2
:100B3000A0E0B0E08093D5019093D601A093D701B7
:100B4000B093D80180E291E09093D2018093D101DB
:100B500089E491E09093DE018093DD018DE891E0DE
:100B60009093E0018093DF0185EC90E09093E201A7
:100B70008093E10184EC90E09093E4018093E301A1
:100B800080EC90E09093E6018093E50181EC90E0A9
:100B90009093E8018093E70182EC90E09093EA0162
:100BA0008093E90186EC90E09093EC018093EB0157
:100BB00084E08093ED0183E08093EE0187E08093F1
:100BC000EF0185E08093F00181E08093F1010895C9
:100BD0000895CF93DF930E94AF020E94E8050E9420
:100BE0001F02CCE0D4E00E94DB012097E1F30E94D9
:100BF0000C04F9CFCF92DF92EF92FF920F931F93E5
:100C0000CF93DF937C016B018A01C0E0D0E00FC07D
:100C1000D6016D916D01D701ED91FC910190F081AC
:100C2000E02DC7010995C80FD91F015010400115CB
:100C3000110571F7CE01DF91CF911F910F91FF90B8
:100C4000EF90DF90CF900895EF92FF920F931F9354
:100C50008C01DC01ED91FC910190F081E02D6DE0C3
:100C600009957C01D801ED91FC910190F081E02D76
:100C7000C8016AE009959C012E0D3F1DC9011F9115
:100C80000F91FF90EF900895CF93DF93EC016115E2
:100C9000710519F420E030E00FC0DB010D90002059
:100CA000E9F71197A61BB70BE881F9810280F38160
:100CB000E02DAD0109959C01C901DF91CF91089507
:100CC0004F925F927F928F929F92AF92BF92CF92FC
:100CD000DF92EF92FF920F931F93DF93CF93CDB7E5
:100CE000DEB7A1970FB6F894DEBF0FBECDBF2C01C3
:100CF000742ECB01223008F42AE019A231E2C32E6F
:100D0000D12CCC0EDD1E822E9924AA24BB24672D63
:100D1000752FA50194010E948B0779018A01C801F2
:100D2000B701A50194010E945907472D461B08945D
:100D3000C108D1084A3014F4405D01C0495CF60195
:100D40004083E114F1040105110521F07E2C5F2D93
:100D5000C801DDCFC201B6010E944406A1960FB6BC
:100D6000F894DEBF0FBECDBFCF91DF911F910F91E1
:100D7000FF90EF90DF90CF90BF90AF909F908F90BB
:100D80007F905F904F900895DC012115310541F46B
:100D9000ED91FC910190F081E02D642F099508956B
:100DA0000E9460060895EF92FF920F931F937C01BB
:100DB0000E94C4068C01C7010E9424069C01200FDA
:100DC000311FC9011F910F91FF90EF900895CF92AD
:100DD000DF92EF92FF920F931F93CF93DF93EC017B
:100DE0006A017B012115310541F4E881F981019007
:100DF000F081E02D642F09951FC02A303105D1F410
:100E000077FF17C0E881F9810190F081E02D6DE254
:100E100009958C0144275527BA014C195D096E09C3
:100E20007F09CE012AE00E9460069801280F391F31
:100E300004C02AE00E9460069C01C901DF91CF91A5
:100E40001F910F91FF90EF90DF90CF900895CF9278
:100E5000DF92EF92FF920F931F936C017B019A0137
:100E60000027F7FC0095102FB801A7010E94E706A4
:100E70008C01C6010E942406080F191FC8011F918A
:100E80000F91FF90EF90DF90CF900895EF92FF9237
:100E90000F931F937C010E9444068C01C7010E949E
:100EA0002406080F191FC8011F910F91FF90EF90A2
:100EB0000895629FD001739FF001829FE00DF11DA4
:100EC000649FE00DF11D929FF00D839FF00D749FC4
:100ED000F00D659FF00D9927729FB00DE11DF91F70
:100EE000639FB00DE11DF91FBD01CF0111240895CD
:100EF00097FB092E07260AD077FD04D02ED006D006
:100F000000201AF4709561957F4F0895F6F790953B
:100F100081959F4F0895A1E21A2EAA1BBB1BFD01CC
:100F20000DC0AA1FBB1FEE1FFF1FA217B307E407C8
:100F3000F50720F0A21BB30BE40BF50B661F771F20
:100F4000881F991F1A9469F7609570958095909500
:100F50009B01AC01BD01CF010895AA1BBB1B51E150
:100F600007C0AA1FBB1FA617B70710F0A61BB70B19
:100F7000881F991F5A95A9F780959095BC01CD01BE
:100F80000895EE0FFF1F0590F491E02D0994F89459
:020F9000FFCF91
:100F92006D6F646530006D6F646531006D6F6465FF
:100FA20032006D6F646533006400000000000000D1
:0C0FB2005205FA05E5041905F904420592
:00000001FF
