:100000000C9464000C948C000C948C000C948C0068
:100010000C948C000C948C000C948C000C948C0030
:100020000C948C000C948C000C948C000C948C0020
:100030000C948C000C948C000C948C000C948C0010
:100040000C9414020C948C000C94D7030C94290487
:100050000C948C000C948C000C948C000C948C00F0
:100060000C948C000C948C000000000024002700ED
:100070002A0000000000250028002B0000000000DE
:1000800023002600290004040404040404040202DA
:100090000202020203030303030301020408102007
:1000A0004080010204081020010204081020000012
:1000B0000007000201000003040600000000000029
:1000C00000008E00AE01980511241FBECFEFD8E0CE
:1000D000DEBFCDBF11E0A0E0B1E0E4E9FDE002C089
:1000E00005900D92A639B107D9F712E0A6E9B1E063
:1000F00001C01D92A535B107E1F710E0C8ECD0E0D2
:1001000004C02297FE010E94C406C23CD107C9F771
:100110000E94EF050C94C8060C94000086E991E05B
:1001200068E041E00E94F70189E991E069E041E07F
:100130000E94F7018CE991E06DE00E94A60108950C
:1001400083E392E068E071E00E946606089583E32D
:1001500092E065E171E00E946606089583E392E013
:1001600063E271E00E946606089583E392E060E333
:1001700071E00E946606089583E392E06FE371E008
:100180000E946606089583E392E06CE471E00E94A9
:10019000660608958CE991E064EF71E041E00E9409
:1001A0007B0183E392E06BE571E00E9466060895AF
:1001B00083E392E06AE671E00E9466068CE991E0D2
:1001C0000E946101089583E392E068E771E00E9474
:1001D00066068CE991E00E945401089583E392E061
:1001E00060E071E00E94660686E991E00E94DE010F
:1001F0008823F9F080919E0190919F01009719F456
:100200000E94BC000EC08130910539F40E94AE00FE
:100210000E94A70082E090E008C0029751F40E947B
:10022000A0000E94D80081E090E090939F0180930D
:100230009E0189E991E00E94DE018823C1F080914E
:100240009E0190919F01009791F08130910529F4D2
:100250000E94AE000E94E3000AC0029741F40E948F
:10026000A0000E94E30010929F0110929E018091D5
:100270009E0190919F01009719F40E94C300089578
:100280008130910519F40E94B5000895029711F488
:100290000E94CA00089583E392E040E855E260E0DE
:1002A00070E00E94640408950F931F938C01FC0179
:1002B000818160E00E942F03F80110821F910F914D
:1002C00008950F931F938C01FC01818161E00E94CE
:1002D0002F0381E0F80180831F910F910895FC01A5
:1002E0008081882321F0CF010E9454010895CF011D
:1002F0000E9461010895CF92DF92EF92FF920F93D7
:100300001F93CF93DF93EC01C42E769567957B0105
:1003100000E010E0DD240FC0CE010E946F01C80193
:10032000B7010E945C02CE010E946F01C801B701B3
:100330000E945C02D394DC1478F3DF91CF911F917B
:100340000F91FF90EF90DF90CF900895FC01862FE2
:100350006183108261E00E94F002089580EA91E0DA
:100360006DE00E94A6010895CF93DF93EC018A818E
:1003700080FF02C0826001C08D7F8A8388810E94D5
:100380008303298130E04A818217930711F44E7F5D
:1003900001C041604A834A81242F30E0C90195950C
:1003A00087958227932780FF02C0446001C04B7F5E
:1003B0004A838A818170DF91CF910895CF93DF9333
:1003C000EC010E94B401882339F08A8190E096956F
:1003D0008795969587958170DF91CF910895FC015F
:1003E00081E08183808161E00E942F0308951F9343
:1003F000CF93DF93EC01862F142F688360E00E9477
:10040000F002112311F4198203C0CE010E94EF0102
:100410001A828981882319F481E08A8301C01A82B3
:10042000DF91CF911F9108951F920F920FB60F92F7
:1004300011242F933F938F939F93AF93BF938091FA
:10044000A6019091A701A091A801B091A9013091B6
:10045000AA010196A11DB11D232F2D5F2D3720F07C
:100460002D570196A11DB11D2093AA018093A601CD
:100470009093A701A093A801B093A9018091A20134
:100480009091A301A091A401B091A5010196A11D95
:10049000B11D8093A2019093A301A093A401B093F6
:1004A000A501BF91AF919F918F913F912F910F9097
:1004B0000FBE0F901F9018959B01AC017FB7F89469
:1004C0008091A2019091A301A091A401B091A501F6
:1004D00066B5A89B05C06F3F19F00196A11DB11D1F
:1004E0007FBFBA2FA92F982F8827860F911DA11D96
:1004F000B11D62E0880F991FAA1FBB1F6A95D1F733
:10050000BC012DC0FFB7F8948091A2019091A30186
:10051000A091A401B091A501E6B5A89B05C0EF3F4D
:1005200019F00196A11DB11DFFBFBA2FA92F982F59
:1005300088278E0F911DA11DB11DE2E0880F991F24
:10054000AA1FBB1FEA95D1F7861B970B885E9340C5
:10055000C8F2215030404040504068517C4F211536
:1005600031054105510571F60895789484B582608E
:1005700084BD84B5816084BD85B5826085BD85B547
:10058000816085BDEEE6F0E0808181608083E1E8F6
:10059000F0E010828081826080838081816080832E
:1005A000E0E8F0E0808181608083E1EBF0E0808131
:1005B00084608083E0EBF0E0808181608083EAE703
:1005C000F0E080818460808380818260808380818C
:1005D000816080838081806880831092C10008954B
:1005E000CF93DF93482F50E0CA0186569F4FFC01FE
:1005F00034914A575F4FFA018491882369F190E062
:10060000880F991FFC01E859FF4FA591B491FC0197
:10061000EE58FF4FC591D491662351F42FB7F8944B
:100620008C91932F909589238C93888189230BC07B
:10063000623061F42FB7F8948C91932F90958923B1
:100640008C938881832B88832FBF06C09FB7F89433
:100650008C91832B8C939FBFDF91CF910895482F6E
:1006600050E0CA0182559F4FFC012491CA01865671
:100670009F4FFC0194914A575F4FFA013491332305
:1006800009F440C0222351F1233071F0243028F4C2
:100690002130A1F0223011F514C02630B1F02730FE
:1006A000C1F02430D9F404C0809180008F7703C05A
:1006B000809180008F7D8093800010C084B58F77FB
:1006C00002C084B58F7D84BD09C08091B0008F7752
:1006D00003C08091B0008F7D8093B000E32FF0E0E5
:1006E000EE0FFF1FEE58FF4FA591B4912FB7F8946E
:1006F000662321F48C919095892302C08C91892BDB
:100700008C932FBF0895682F70E0CB0182559F4FC7
:10071000FC012491CB0186569F4FFC0144916A57FE
:100720007F4FFB019491992319F420E030E03CC005
:10073000222351F1233071F0243028F42130A1F02C
:10074000223011F514C02630B1F02730C1F024302A
:10075000D9F404C0809180008F7703C0809180001D
:100760008F7D8093800010C084B58F7702C084B5E0
:100770008F7D84BD09C08091B0008F7703C08091C8
:10078000B0008F7D8093B000892F90E0880F991F73
:1007900084589F4FFC01A591B4918C9120E030E0EA
:1007A000842311F021E030E0C901089508951F92DB
:1007B0000F920FB60F9211242F933F934F938F9365
:1007C0009F93EF93FF938091C00082FD1DC04091E5
:1007D000C6002091EB013091EC012F5F3F4F2F734A
:1007E00030708091ED019091EE012817390771F07A
:1007F000E091EB01F091EC01E555FE4F4083309321
:10080000EC012093EB0102C08091C600FF91EF91B3
:100810009F918F914F913F912F910F900FBE0F900D
:100820001F901895E0913F02F0914002E05CFF4F6D
:100830008191919120813181805C9F4F821B930B2C
:1008400060E470E00E948D06892B11F00E94D603AF
:1008500008951F920F920FB60F9211242F933F937A
:100860008F939F93EF93FF9320912F02309130024B
:1008700080913102909132022817390731F480912A
:10088000C1008F7D8093C10014C0E0913102F091CE
:100890003202E151FE4F208180913102909132026B
:1008A00001968F739070909332028093310220935F
:1008B000C600FF91EF919F918F913F912F910F90E3
:1008C0000FBE0F901F901895AF92BF92DF92EF92DC
:1008D000FF920F931F93CF93DF93EC017A018B016B
:1008E000DD24403081EE580780E0680780E078071B
:1008F00011F0DD24D39491E0A92EB12CEC89FD896F
:10090000DD2069F0C50108A002C0880F991F0A9474
:10091000E2F7808360E079E08DE390E005C010822B
:1009200060E874E88EE190E0A80197010E94A006BB
:100930002150304040405040569547953795279577
:1009400080E12030380720F0DD2011F0DD24D6CF03
:10095000E889F9893083EA89FB89208319A2EE8925
:10096000FF89408121E030E0C9010C8C02C0880F72
:10097000991F0A94E2F7482B4083EE89FF89408152
:10098000C9010D8C02C0880F991F0A94E2F7482B09
:100990004083EE89FF894081C9010E8C02C0880F17
:1009A000991F0A94E2F7482B4083EE89FF898081E2
:1009B0000F8C02C0220F331F0A94E2F720952823E0
:1009C0002083DF91CF911F910F91FF90EF90DF90E7
:1009D000BF90AF900895DC011C96ED91FC911D979E
:1009E000E05CFF4F8191919120813181805C9F4F2C
:1009F000821B930B60E470E00E948D060895DC0179
:100A00001C96ED91FC911D97E05CFF4F2081318198
:100A1000E054F040DF01AE5BBF4F8D919C91119788
:100A20002817390719F42FEF3FEF07C08D919C91DC
:100A3000E80FF91F8081282F30E0C9010895DC01FB
:100A40001C96ED91FC911D97E05CFF4F2081318158
:100A5000E054F040DF01AE5BBF4F8D919C91119748
:100A60002817390719F42FEF3FEF10C08D919C9193
:100A70001197E80FF91F20818D919C911197019694
:100A80008F73907011969C938E9330E0C9010895F6
:100A9000DC0191968C919197882339F05496ED91D1
:100AA000FC915597808186FFF9CF91961C9208950D
:100AB000CF93DF93EC01EE85FF85E05CFF4F208153
:100AC0003181E054F0402F5F3F4F2F733070DF01D2
:100AD000AE5BBF4F8D919C91119728173907D1F3C9
:100AE000E05CFF4F80819181E054F040E80FF91FF6
:100AF0006083EE85FF85E05CFF4F31832083EE89C4
:100B0000FF89208181E090E00F8C02C0880F991F3F
:100B10000A94E2F7282B208381E089A3EC89FD89E0
:100B200080818064808381E090E0DF91CF9108959F
:100B3000109236021092350288EE93E0A0E0B0E009
:100B40008093370290933802A0933902B0933A020F
:100B50008AE891E090933402809333028BEA91E02B
:100B60009093400280933F028FEE91E09093420277
:100B70008093410285EC90E090934402809343027D
:100B800084EC90E0909346028093450280EC90E0E4
:100B9000909348028093470281EC90E090934A0240
:100BA0008093490282EC90E090934C0280934B0238
:100BB00086EC90E090934E0280934D0284E0809307
:100BC0004F0283E08093500287E08093510285E0DA
:100BD0008093520281E08093530208950895CF9349
:100BE000DF930E94B5020E94EE050E944B01C2E114
:100BF000D4E00E94EE002097E1F30E941204F9CFA6
:100C0000CF92DF92EF92FF920F931F93CF93DF93D8
:100C10007C016B018A01C0E0D0E00FC0D6016D916C
:100C20006D01D701ED91FC910190F081E02DC7019C
:100C30000995C80FD91F015010400115110571F712
:100C4000CE01DF91CF911F910F91FF90EF90DF9038
:100C5000CF900895EF92FF920F931F938C01DC01C8
:100C6000ED91FC910190F081E02D6DE009957C0102
:100C7000D801ED91FC910190F081E02DC8016AE06E
:100C800009959C012E0D3F1DC9011F910F91FF90E9
:100C9000EF900895CF93DF93EC016115710519F47E
:100CA00020E030E00FC0DB010D900020E9F7119744
:100CB000A61BB70BE881F9810280F381E02DAD011D
:100CC00009959C01C901DF91CF910895EF92FF92A0
:100CD0000F931F937C010E944A068C01C7010E945A
:100CE0002A06080F191FC8011F910F91FF90EF905E
:100CF0000895AA1BBB1B51E107C0AA1FBB1FA61763
:100D0000B70710F0A61BB70B881F991F5A95A9F7B4
:100D100080959095BC01CD01089597FB092E07267B
:100D20000AD077FD04D0E5DF06D000201AF47095D4
:100D300061957F4F0895F6F7909581959F4F08959F
:100D4000A1E21A2EAA1BBB1BFD010DC0AA1FBB1FCF
:100D5000EE1FFF1FA217B307E407F50720F0A21B41
:100D6000B30BE40BF50B661F771F881F991F1A94AE
:100D700069F760957095809590959B01AC01BD01D8
:100D8000CF010895EE0FFF1F0590F491E02D099417
:040D9000F894FFCF05
:100D94006E656B6F73616E00657869742070617540
:100DA40073696E6700656E7465722070617573692E
:100DB4006E67006578697420706C6179696E67008C
:100DC40075706461746520706C6179696E67006523
:100DD4007869742077616974696E670075706461FD
:100DE40074652077616974696E67007570646174F5
:100DF400652070617573696E6700656E7465722035
:100E0400706C6179696E6700656E746572207761D4
:100E14006974696E67000000000058050006EB0461
:060E24001F05FF04480554
:00000001FF
