:100000000C9462000C948A000C948A000C948A0070
:100010000C948A000C948A000C948A000C948A0038
:100020000C948A000C948A000C948A000C948A0028
:100030000C948A000C948A000C948A000C948A0018
:100040000C94D6010C948A000C944E030C94A003DB
:100050000C948A000C948A000C948A000C948A00F8
:100060000C948A000C948A000000000024002700F1
:100070002A0000000000250028002B0000000000DE
:1000800023002600290004040404040404040202DA
:100090000202020203030303030301020408102007
:1000A0004080010204081020010204081020000012
:1000B0000007000201000003040600000000000029
:1000C00000000F0511241FBECFEFD8E0DEBFCDBF6B
:1000D00011E0A0E0B1E0E4EEFBE002C005900D927B
:1000E000A031B107D9F711E0A0E1B1E001C01D9244
:1000F000A63DB107E1F710E0C4ECD0E004C02297C0
:10010000FE010E94EC05C23CD107C9F70E946605BA
:100110000C94F0050C9400000E941E022091150121
:10012000309116014091170150911801621B730B19
:10013000840B950B695E73408040904010F480E022
:1001400008950E941E02609315017093160180931A
:1001500017019093180181E008951F93182F83E0F1
:10016000612F0E94A60284E0612F0E94A60285E012
:10017000612F0E94A60286E0612F0E94A60287E0FE
:10018000612F0E94A6021F910895EF92FF920F9394
:100190001F937B018C010E941E022091110130915E
:1001A00012014091130150911401621B730B840BD7
:1001B000950BE616F70608071907A8F490E080915A
:1001C0001001882309F491E090931001892F0E9477
:1001D000AD000E941E026093110170931201809382
:1001E0001301909314011F910F91FF90EF900895C8
:1001F00083E060E00E94A60284E060E00E94A60224
:1002000085E060E00E94A60286E060E00E94A6020F
:1002100087E060E00E94A60208950097C9F081304F
:10022000910529F468EE73E080E090E00EC0823022
:10023000910529F460E971E080E090E006C0039741
:1002400039F460E570E080E090E00E94C500089518
:100250000E94F8000895CF93DF9382E00E94FA0293
:10026000EC0180911E0190E0C817D90751F00E945F
:100270001E026093190170931A0180931B019093E1
:100280001C010E941E022091190130911A01409117
:100290001B0150911C01621B730B840B950B65367F
:1002A00071058105910560F080911D0190E0C817EE
:1002B000D90731F0C0931D01C13011F481E003C0B2
:1002C000C0931E0180E0DF91CF9108950E942B0121
:1002D000882389F08091210190912201892B39F4A2
:1002E00081E090E0909322018093210104C010925C
:1002F0002201109221018091210190912201892BEC
:1003000039F40E94F8001092200110921F01089504
:100310000E948C00882341F180911F01909120015F
:1003200001969093200180931F018130910519F46B
:1003300081E090E013C08A30910519F482E090E0EA
:100340000DC08431910519F483E090E007C049970E
:1003500019F08AE090E002C080E090E090932201E2
:10036000809321010E940D01089584EB91E040E803
:1003700055E260E070E00E94DB0383E061E00E94F0
:10038000670284E061E00E94670285E061E00E940C
:10039000670286E061E00E94670287E061E00E94F8
:1003A000670282E062E00E94670208951F920F9246
:1003B0000FB60F9211242F933F938F939F93AF9378
:1003C000BF938091270190912801A0912901B091BC
:1003D0002A0130912B010196A11DB11D232F2D5F04
:1003E0002D3720F02D570196A11DB11D20932B0113
:1003F0008093270190932801A0932901B0932A01AB
:100400008091230190912401A0912501B0912601B2
:100410000196A11DB11D8093230190932401A09307
:100420002501B0932601BF91AF919F918F913F918C
:100430002F910F900FBE0F901F9018958FB7F894C3
:1004400020912701309128014091290150912A01E2
:100450008FBFB901CA010895789484B5826084BDC4
:1004600084B5816084BD85B5826085BD85B58160B8
:1004700085BDEEE6F0E0808181608083E1E8F0E018
:100480001082808182608083808181608083E0E847
:10049000F0E0808181608083E1EBF0E08081846026
:1004A0008083E0EBF0E0808181608083EAE7F0E028
:1004B000808184608083808182608083808181608C
:1004C00080838081806880831092C1000895CF93DB
:1004D000DF93482F50E0CA0186569F4FFC013491AC
:1004E0004A575F4FFA018491882369F190E0880FA1
:1004F000991FFC01E859FF4FA591B491FC01EE58FA
:10050000FF4FC591D491662351F42FB7F8948C9185
:10051000932F909589238C93888189230BC0623017
:1005200061F42FB7F8948C91932F909589238C9335
:100530008881832B88832FBF06C09FB7F8948C9146
:10054000832B8C939FBFDF91CF910895482F50E06C
:10055000CA0182559F4FFC012491CA0186569F4FC4
:10056000FC0194914A575F4FFA013491332309F407
:1005700040C0222351F1233071F0243028F421307F
:10058000A1F0223011F514C02630B1F02730C1F0AF
:100590002430D9F404C0809180008F7703C080910B
:1005A00080008F7D8093800010C084B58F7702C05B
:1005B00084B58F7D84BD09C08091B0008F7703C062
:1005C0008091B0008F7D8093B000E32FF0E0EE0FBC
:1005D000FF1FEE58FF4FA591B4912FB7F8946623F3
:1005E00021F48C919095892302C08C91892B8C9356
:1005F0002FBF0895682F70E0CB0182559F4FFC01FB
:100600002491CB0186569F4FFC0144916A577F4F3E
:10061000FB019491992319F420E030E03CC022239F
:1006200051F1233071F0243028F42130A1F0223030
:1006300011F514C02630B1F02730C1F02430D9F4C0
:1006400004C0809180008F7703C0809180008F7DEF
:100650008093800010C084B58F7702C084B58F7DF1
:1006600084BD09C08091B0008F7703C08091B00035
:100670008F7D8093B000892F90E0880F991F845858
:100680009F4FFC01A591B4918C9120E030E0842330
:1006900011F021E030E0C901089508951F920F92F2
:1006A0000FB60F9211242F933F934F938F939F93E5
:1006B000EF93FF938091C00082FD1DC04091C60062
:1006C00020916C0130916D012F5F3F4F2F7330707F
:1006D00080916E0190916F012817390771F0E091B8
:1006E0006C01F0916D01E45DFE4F408330936D012C
:1006F00020936C0102C08091C600FF91EF919F9101
:100700008F914F913F912F910F900FBE0F901F909F
:100710001895E091C001F091C101E05CFF4F81911B
:10072000919120813181805C9F4F821B930B60E40B
:1007300070E00E94A105892B11F00E944D030895DD
:100740001F920F920FB60F9211242F933F938F9306
:100750009F93EF93FF932091B0013091B10180916D
:10076000B2019091B3012817390731F48091C1008B
:100770008F7D8093C10014C0E091B201F091B3016C
:10078000E059FE4F20818091B2019091B301019612
:100790008F7390709093B3018093B2012093C60041
:1007A000FF91EF919F918F913F912F910F900FBEED
:1007B0000F901F901895AF92BF92DF92EF92FF9229
:1007C0000F931F93CF93DF93EC017A018B01DD240C
:1007D000403081EE580780E0680780E0780711F02C
:1007E000DD24D39491E0A92EB12CEC89FD89DD2084
:1007F00069F0C50108A002C0880F991F0A94E2F7AA
:10080000808360E079E08DE390E005C0108260E8CD
:1008100074E88EE190E0A80197010E94B405215090
:10082000304040405040569547953795279580E198
:100830002030380720F0DD2011F0DD24D6CFE88904
:10084000F9893083EA89FB89208319A2EE89FF891F
:10085000408121E030E0C9010C8C02C0880F991F53
:100860000A94E2F7482B4083EE89FF894081C90151
:100870000D8C02C0880F991F0A94E2F7482B408321
:10088000EE89FF894081C9010E8C02C0880F991F33
:100890000A94E2F7482B4083EE89FF8980810F8C10
:1008A00002C0220F331F0A94E2F7209528232083E9
:1008B000DF91CF911F910F91FF90EF90DF90BF904C
:1008C000AF900895DC011C96ED91FC911D97E05CC2
:1008D000FF4F8191919120813181805C9F4F821BDC
:1008E000930B60E470E00E94A1050895DC011C9662
:1008F000ED91FC911D97E05CFF4F20813181E05428
:10090000F040DF01AE5BBF4F8D919C91119728178E
:10091000390719F42FEF3FEF07C08D919C91E80F35
:10092000F91F8081282F30E0C9010895DC011C9651
:10093000ED91FC911D97E05CFF4F20813181E054E7
:10094000F040DF01AE5BBF4F8D919C91119728174E
:10095000390719F42FEF3FEF10C08D919C9111973B
:10096000E80FF91F20818D919C91119701968F734B
:10097000907011969C938E9330E0C9010895DC012C
:1009800091968C919197882339F05496ED91FC9132
:100990005597808186FFF9CF91961C920895CF9349
:1009A000DF93EC01EE85FF85E05CFF4F2081318114
:1009B000E054F0402F5F3F4F2F733070DF01AE5B8C
:1009C000BF4F8D919C91119728173907D1F3E05CA7
:1009D000FF4F80819181E054F040E80FF91F608360
:1009E000EE85FF85E05CFF4F31832083EE89FF8930
:1009F000208181E090E00F8C02C0880F991F0A943B
:100A0000E2F7282B208381E089A3EC89FD8980818E
:100A10008064808381E090E0DF91CF91089510920F
:100A2000B7011092B60188EE93E0A0E0B0E08093A9
:100A3000B8019093B901A093BA01B093BB0184E0CF
:100A400091E09093B5018093B4018CE291E0909392
:100A5000C1018093C00180E791E09093C30180932E
:100A6000C20185EC90E09093C5018093C40184ECB1
:100A700090E09093C7018093C60180EC90E0909342
:100A8000C9018093C80181EC90E09093CB018093E1
:100A9000CA0182EC90E09093CD018093CC0186EC6A
:100AA00090E09093CF018093CE0184E08093D001B9
:100AB00083E08093D10187E08093D20185E0809329
:100AC000D30181E08093D40108950895CF93DF93FB
:100AD0000E942C020E9465050E94B501C9E8D3E07E
:100AE0000E9466012097E1F30E948903F9CFCF921B
:100AF000DF92EF92FF920F931F93CF93DF937C01CE
:100B00006B018A01C0E0D0E00FC0D6016D916D018C
:100B1000D701ED91FC910190F081E02DC70109957D
:100B2000C80FD91F015010400115110571F7CE01F2
:100B3000DF91CF911F910F91FF90EF90DF90CF90B9
:100B4000089597FB092E07260AD077FD04D02ED0F2
:100B500006D000201AF4709561957F4F0895F6F73E
:100B6000909581959F4F0895A1E21A2EAA1BBB1B59
:100B7000FD010DC0AA1FBB1FEE1FFF1FA217B30769
:100B8000E407F50720F0A21BB30BE40BF50B661F7F
:100B9000771F881F991F1A9469F760957095809543
:100BA00090959B01AC01BD01CF010895AA1BBB1B11
:100BB00051E107C0AA1FBB1FA617B70710F0A61B5D
:100BC000B70B881F991F5A95A9F780959095BC017E
:100BD000CD010895EE0FFF1F0590F491E02D0994CB
:040BE000F894FFCFB7
:100BE40000000000CF047705620496047604BF0475
:00000001FF
