:100000000C9464000C948C000C948C000C948C0068
:100010000C948C000C948C000C948C000C948C0030
:100020000C948C000C948C000C948C000C948C0020
:100030000C948C000C948C000C948C000C948C0010
:100040000C9404020C948C000C946E030C94C0036A
:100050000C948C000C948C000C948C000C948C00F0
:100060000C948C000C948C000000000024002700ED
:100070002A0000000000250028002B0000000000DE
:1000800023002600290004040404040404040202DA
:100090000202020203030303030301020408102007
:1000A0004080010204081020010204081020000012
:1000B0000007000201000003040600000000000029
:1000C00000008E009E012F0511241FBECFEFD8E047
:1000D000DEBFCDBF11E0A0E0B1E0E2ECFCE002C089
:1000E00005900D92AE38B107D9F712E0AEE8B1E055
:1000F00001C01D92A535B107E1F710E0C8ECD0E0D2
:1001000004C02297FE010E945B06C23CD107C9F7DA
:100110000E9486050C945F060C9400008EE891E026
:1001200068E041E00E94E70181E991E069E041E097
:100130000E94E70184E991E063E00E94960186E96C
:1001400091E064E00E94960188E991E065E00E94F8
:1001500096018AE991E066E00E9496018CE991E0BF
:1001600067E00E949601089583E392E060E071E009
:100170000E94FD05089583E392E06DE071E00E9426
:10018000FD05089583E392E06CE171E00E94FD05B6
:10019000089583E392E06AE271E00E94FD0508950C
:1001A00083E392E067E371E00E94FD05089583E335
:1001B00092E066E471E00E94FD05089583E392E019
:1001C00063E571E00E94FD05089583E392E062E635
:1001D00071E00E94FD0584E991E00E94880186E9B2
:1001E00091E00E94880188E991E00E9488018AE9F3
:1001F00091E00E9488018CE991E00E9488010895B5
:1002000083E392E060E771E00E94FD0584E991E0FC
:100210000E947B0186E991E00E947B0188E991E0E0
:100220000E947B018AE991E00E947B018CE991E0C8
:100230000E947B0108958EE891E00E94CE01882300
:10024000F9F080919E0190919F01009719F40E940E
:10025000D7000EC08130910539F40E94C9000E9478
:10026000C20082E090E008C0029751F40E94B400FE
:100270000E94E50081E090E090939F0180939E01B1
:1002800081E991E00E94CE018823C1F080919E0116
:1002900090919F01009791F08130910529F40E947F
:1002A000C9000E9400010AC0029741F40E94B400F4
:1002B0000E94000110929F0110929E0180919E0168
:1002C00090919F01009719F40E94DE0008958130FB
:1002D000910519F40E94D0000895029711F40E942C
:1002E000BB00089583E392E040E855E260E070E0EF
:1002F0000E94FB0308950F931F938C01FC018181E1
:1003000060E00E94C602F80110821F910F910895CB
:100310000F931F938C01FC01818161E00E94C60252
:1003200081E0F80180831F910F910895FC01862FD1
:100330006183108261E00E948702089580EA91E063
:100340006DE00E9496010895CF93DF93EC018A81BE
:1003500080FF02C0826001C08D7F8A8388810E94F5
:100360001A03298130E04A818217930711F44E7FE6
:1003700001C041604A834A81242F30E0C90195952C
:1003800087958227932780FF02C0446001C04B7F7E
:100390004A838A818170DF91CF910895CF93DF9353
:1003A000EC010E94A401882339F08A8190E096959F
:1003B0008795969587958170DF91CF910895FC017F
:1003C00081E08183808161E00E94C60208951F93CD
:1003D000CF93DF93EC01862F142F688360E00E9497
:1003E0008702112311F4198203C0CE010E94DF019C
:1003F0001A828981882319F481E08A8301C01A82D4
:10040000DF91CF911F9108951F920F920FB60F9217
:1004100011242F933F938F939F93AF93BF9380911A
:10042000A6019091A701A091A801B091A9013091D6
:10043000AA010196A11DB11D232F2D5F2D3720F09C
:100440002D570196A11DB11D2093AA018093A601ED
:100450009093A701A093A801B093A9018091A20154
:100460009091A301A091A401B091A5010196A11DB5
:10047000B11D8093A2019093A301A093A401B09316
:10048000A501BF91AF919F918F913F912F910F90B7
:100490000FBE0F901F901895789484B5826084BD2C
:1004A00084B5816084BD85B5826085BD85B5816078
:1004B00085BDEEE6F0E0808181608083E1E8F0E0D8
:1004C0001082808182608083808181608083E0E807
:1004D000F0E0808181608083E1EBF0E080818460E6
:1004E0008083E0EBF0E0808181608083EAE7F0E0E8
:1004F000808184608083808182608083808181604C
:1005000080838081806880831092C1000895CF939A
:10051000DF93482F50E0CA0186569F4FFC0134916B
:100520004A575F4FFA018491882369F190E0880F60
:10053000991FFC01E859FF4FA591B491FC01EE58B9
:10054000FF4FC591D491662351F42FB7F8948C9145
:10055000932F909589238C93888189230BC06230D7
:1005600061F42FB7F8948C91932F909589238C93F5
:100570008881832B88832FBF06C09FB7F8948C9106
:10058000832B8C939FBFDF91CF910895482F50E02C
:10059000CA0182559F4FFC012491CA0186569F4F84
:1005A000FC0194914A575F4FFA013491332309F4C7
:1005B00040C0222351F1233071F0243028F421303F
:1005C000A1F0223011F514C02630B1F02730C1F06F
:1005D0002430D9F404C0809180008F7703C08091CB
:1005E00080008F7D8093800010C084B58F7702C01B
:1005F00084B58F7D84BD09C08091B0008F7703C022
:100600008091B0008F7D8093B000E32FF0E0EE0F7B
:10061000FF1FEE58FF4FA591B4912FB7F8946623B2
:1006200021F48C919095892302C08C91892B8C9315
:100630002FBF0895682F70E0CB0182559F4FFC01BA
:100640002491CB0186569F4FFC0144916A577F4FFE
:10065000FB019491992319F420E030E03CC022235F
:1006600051F1233071F0243028F42130A1F02230F0
:1006700011F514C02630B1F02730C1F02430D9F480
:1006800004C0809180008F7703C0809180008F7DAF
:100690008093800010C084B58F7702C084B58F7DB1
:1006A00084BD09C08091B0008F7703C08091B000F5
:1006B0008F7D8093B000892F90E0880F991F845818
:1006C0009F4FFC01A591B4918C9120E030E08423F0
:1006D00011F021E030E0C901089508951F920F92B2
:1006E0000FB60F9211242F933F934F938F939F93A5
:1006F000EF93FF938091C00082FD1DC04091C60022
:100700002091EB013091EC012F5F3F4F2F73307040
:100710008091ED019091EE012817390771F0E09179
:10072000EB01F091EC01E555FE4F40833093EC0175
:100730002093EB0102C08091C600FF91EF919F9141
:100740008F914F913F912F910F900FBE0F901F905F
:100750001895E0913F02F0914002E05CFF4F8191DB
:10076000919120813181805C9F4F821B930B60E4CB
:1007700070E00E942406892B11F00E946D030895F9
:100780001F920F920FB60F9211242F933F938F93C6
:100790009F93EF93FF9320912F023091300280912D
:1007A0003102909132022817390731F48091C1004B
:1007B0008F7D8093C10014C0E0913102F09132022C
:1007C000E151FE4F208180913102909132020196D9
:1007D0008F73907090933202809331022093C60001
:1007E000FF91EF919F918F913F912F910F900FBEAD
:1007F0000F901F901895AF92BF92DF92EF92FF92E9
:100800000F931F93CF93DF93EC017A018B01DD24CB
:10081000403081EE580780E0680780E0780711F0EB
:10082000DD24D39491E0A92EB12CEC89FD89DD2043
:1008300069F0C50108A002C0880F991F0A94E2F769
:10084000808360E079E08DE390E005C0108260E88D
:1008500074E88EE190E0A80197010E9437062150CC
:10086000304040405040569547953795279580E158
:100870002030380720F0DD2011F0DD24D6CFE889C4
:10088000F9893083EA89FB89208319A2EE89FF89DF
:10089000408121E030E0C9010C8C02C0880F991F13
:1008A0000A94E2F7482B4083EE89FF894081C90111
:1008B0000D8C02C0880F991F0A94E2F7482B4083E1
:1008C000EE89FF894081C9010E8C02C0880F991FF3
:1008D0000A94E2F7482B4083EE89FF8980810F8CD0
:1008E00002C0220F331F0A94E2F7209528232083A9
:1008F000DF91CF911F910F91FF90EF90DF90BF900C
:10090000AF900895DC011C96ED91FC911D97E05C81
:10091000FF4F8191919120813181805C9F4F821B9B
:10092000930B60E470E00E9424060895DC011C969D
:10093000ED91FC911D97E05CFF4F20813181E054E7
:10094000F040DF01AE5BBF4F8D919C91119728174E
:10095000390719F42FEF3FEF07C08D919C91E80FF5
:10096000F91F8081282F30E0C9010895DC011C9611
:10097000ED91FC911D97E05CFF4F20813181E054A7
:10098000F040DF01AE5BBF4F8D919C91119728170E
:10099000390719F42FEF3FEF10C08D919C911197FB
:1009A000E80FF91F20818D919C91119701968F730B
:1009B000907011969C938E9330E0C9010895DC01EC
:1009C00091968C919197882339F05496ED91FC91F2
:1009D0005597808186FFF9CF91961C920895CF9309
:1009E000DF93EC01EE85FF85E05CFF4F20813181D4
:1009F000E054F0402F5F3F4F2F733070DF01AE5B4C
:100A0000BF4F8D919C91119728173907D1F3E05C66
:100A1000FF4F80819181E054F040E80FF91F60831F
:100A2000EE85FF85E05CFF4F31832083EE89FF89EF
:100A3000208181E090E00F8C02C0880F991F0A94FA
:100A4000E2F7282B208381E089A3EC89FD8980814E
:100A50008064808381E090E0DF91CF9108951092CF
:100A600036021092350288EE93E0A0E0B0E0809369
:100A7000370290933802A0933902B0933A0282E889
:100A800091E090933402809333028BEA91E090934B
:100A9000400280933F028FEE91E090934202809358
:100AA000410285EC90E0909344028093430284ECF1
:100AB00090E0909346028093450280EC90E0909302
:100AC00048028093470281EC90E090934A02809321
:100AD000490282EC90E090934C0280934B0286ECAA
:100AE00090E090934E0280934D0284E080934F02F9
:100AF00083E08093500287E08093510285E08093E9
:100B0000520281E08093530208950895CF93DF93BA
:100B10000E944C020E9485050E947201C9EAD3E03E
:100B20000E941B012097E1F30E94A903F9CFCF9205
:100B3000DF92EF92FF920F931F93CF93DF937C018D
:100B40006B018A01C0E0D0E00FC0D6016D916D014C
:100B5000D701ED91FC910190F081E02DC70109953D
:100B6000C80FD91F015010400115110571F7CE01B2
:100B7000DF91CF911F910F91FF90EF90DF90CF9079
:100B80000895EF92FF920F931F938C01DC01ED917A
:100B9000FC910190F081E02D6DE009957C01D80178
:100BA000ED91FC910190F081E02DC8016AE009957A
:100BB0009C012E0D3F1DC9011F910F91FF90EF90D9
:100BC0000895CF93DF93EC016115710519F420E0CE
:100BD00030E00FC0DB010D900020E9F71197A61B54
:100BE000B70BE881F9810280F381E02DAD01099511
:100BF0009C01C901DF91CF910895EF92FF920F936D
:100C00001F937C010E94E1058C01C7010E94C10570
:100C1000080F191FC8011F910F91FF90EF900895C1
:100C2000AA1BBB1B51E107C0AA1FBB1FA617B70712
:100C300010F0A61BB70B881F991F5A95A9F780952E
:100C40009095BC01CD01089597FB092E07260AD087
:100C500077FD04D0E5DF06D000201AF47095619589
:100C60007F4F0895F6F7909581959F4F0895A1E2E3
:100C70001A2EAA1BBB1BFD010DC0AA1FBB1FEE1F16
:100C8000FF1FA217B307E407F50720F0A21BB30B61
:100C9000E40BF50B661F771F881F991F1A9469F7DD
:100CA00060957095809590959B01AC01BD01CF0139
:100CB0000895EE0FFF1F0590F491E02D0994F8942C
:020CC000FFCF64
:100CC200657869742070617573696E670075706408
:100CD2006174652070617573696E6700656E746515
:100CE200722070617573696E67006578697420702F
:100CF2006C6179696E670075706461746520706CEF
:100D02006179696E670065786974207761697469D1
:100D12006E67007570646174652077616974696ECD
:100D22006700656E74657220706C6179696E670028
:100D3200656E7465722077616974696E6700000080
:0E0D42000000EF0497058204B6049604DF0457
:00000001FF
